:020000040800F2
:100000000028002009090008990800089F08000836
:10001000A5080008AB080008B108000800000000AF
:10002000000000000000000000000000B708000809
:10003000C308000800000000CF080008DB08000823
:100040005109000851090008510900085109000828
:100050005109000851090008510900085109000818
:100060005109000851090008510900085109000808
:1000700051090008510900085109000851090008F8
:1000800051090008510900085109000851090008E8
:1000900051090008510900085109000851090008D8
:1000A00051090008510900085109000851090008C8
:1000B000E908000851090008000000005109000883
:1000C000510900080000000000000000510900086C
:1000D000000000005109000851090008000000005C
:1000E00051090008510900085109000800000000EA
:1000F0000000000000000000000000000000000000
:0C01000000000000000000005FF808F1A3
:10010C0010B5054C237833B9044B13B10448AFF345
:10011C0000800123237010BD7C0000200000000033
:10012C00742F000808B5034B1BB103490348AFF308
:10013C00008008BD0000000080000020742F000823
:10014C0080B500AF00224FF480410B4800F0FDFE5B
:10015C0001224FF40041084800F0F7FE02F04CFD7C
:10016C004FF4FA71032002F071FE4FF47A71012002
:10017C0002F06CFE00BF80BD000C014080B500AFEA
:10018C000D4BDB68012B0AD14FF4FA71032002F0FE
:10019C005DFE0A4B1B68C3F10103084A136000F0B3
:1001AC003DF800F01DF800F0DDF802F039FD02F02A
:1001BC001DFE00BF80BD00BF1001002048000020C4
:1001CC0080B500AF0A224FF4FA71002002F05CFEF9
:1001DC0000BF80BD80B400AF00BFBD4680BC70477F
:1001EC0080B500AF0A4B5B68012B0ED14FF47A71CE
:1001FC00012002F02BFE074B1B68013B054A1360E4
:10020C00054B1B68013B044A136000BF80BD00BF57
:10021C0010010020680000206C00002080B400AFAA
:10022C00454B1B68013B454A82FB03129210DB17BE
:10023C00D31A434A1360404B1B68591E3F4B83FB38
:10024C0001239A10CB17D21A13469B0013445B0060
:10025C00CA1A3B4B5A603B4B1B68013B374A82FB2B
:10026C0003129210DB17D31A374A1360354B1B68F5
:10027C00591E324B83FB01239A10CB17D21A13460B
:10028C009B0013445B00CA1A2F4B5A602F4B1B6800
:10029C00013B2A4A82FB03129210DB17D31A2C4A19
:1002AC0013602A4B1B68591E244B83FB01239A10A5
:1002BC00CB17D21A13469B0013445B00CA1A244B6B
:1002CC005A60244B1B68013B1C4A82FB03129210A0
:1002DC00DB17D31A204A13601E4B1B68591E174B91
:1002EC0083FB01239A10CB17D21A13469B0013449D
:1002FC005B00CA1A184B5A60184B1B68013B0F4A1B
:10030C0082FB03129210DB17D31A154A1360134B9E
:10031C001B68591E094B83FB01239A10CB17D21A69
:10032C0013469B0013445B00CA1A0D4B5A6000BF66
:10033C00BD4680BC704700BF6800002067666666DB
:10034C00200000206C000020280000200801002064
:10035C00300000209800002038000020040100200C
:10036C004000002080B586B006AF724B1B68724A05
:10037C0052F823006F4B1B68704A32F8133000227E
:10038C00194600F0E2FD6B4B1B68C3F101036A4A8E
:10039C0052F82300674B1B68C3F10103674A32F81C
:1003AC0013300122194600F0D0FD654B1B680A2B57
:1003BC005FD00A2B00F38980082B02D0092B2CD09C
:1003CC0083E05C4B1B685F4A52F82330DBB204932A
:1003DC0040230393202302931023019308230093BB
:1003EC00042302220121584801F098FD02230493B2
:1003FC004FF4005303934FF4805302934FF4006374
:10040C0001934FF4806300934FF400734FF48072A8
:10041C0080214D4801F082FD88E0464B1B684B4A19
:10042C0052F82330DBB2049340230393202302932E
:10043C001023019308230093042302220121424834
:10044C0001F06CFD032304934FF4005303934FF41A
:10045C00805302934FF4006301934FF48063009335
:10046C004FF400734FF480728021374801F056FD31
:10047C005CE0304B1B68364A52F82330DBB20493F5
:10048C00402303932023029310230193082300930A
:10049C000423022201212C4801F040FD0423049383
:1004AC004FF4005303934FF4805302934FF40063C3
:1004BC0001934FF4806300934FF400734FF48072F8
:1004CC008021214801F02AFD30E01A4B1B68214A9B
:1004DC0052F82330DBB2049340230393202302937E
:1004EC0010230193082300930423022201211648B0
:1004FC0001F014FD0F4B1B68174A52F82330DBB286
:10050C0004934FF4005303934FF4805302934FF42E
:10051C00006301934FF4806300934FF400734FF426
:10052C0080728021084801F0F9FC00BF00BFBD4675
:10053C0080BD00BF48000020000000200800002003
:10054C007000002030000020000C0140380000201A
:10055C0040000020200000202800002080B586B03C
:10056C0006AF00F0F1F900F029F800F0AFF800F058
:10057C0061F80F4801F046F9FFF722FEFFF72AFE5B
:10058C00FFF7DEFDFFF7FAFD0A4B1B6804934023CF
:10059C000393802302934FF480730193064B0093D3
:1005AC00022304220821044801F0C0FEEAE700BF40
:1005BC00B8000020700000200008014080B590B009
:1005CC0000AF07F1180328220021184602F0C4FCE2
:1005DC003B1D00221A605A609A60DA601A6102238D
:1005EC00BB610123BB621023FB6200237B6307F119
:1005FC001803184600F0DAFC0346002B01D000F07B
:10060C00E9F80F237B600023BB600023FB60002311
:10061C003B6100237B613B1D0021184600F046FF27
:10062C000346002B01D000F0D5F800BF4037BD4683
:10063C0080BD000080B586B000AF07F10803002232
:10064C001A605A609A60DA603B4600221A605A605F
:10065C001D4B4FF080421A601B4B41F63F725A60A3
:10066C00194B00229A60184B0922DA60164B0022B3
:10067C001A61154B00229A61134801F073F8034676
:10068C00002B01D000F0A6F84FF48053BB6007F1AB
:10069C00080319460C4801F0F1F90346002B01D070
:1006AC0000F098F800233B6000237B603B46194622
:1006BC00054801F0C9FB0346002B01D000F08AF875
:1006CC0000BF1837BD4680BDB800002080B588B08B
:1006DC0000AF07F1100300221A605A609A60DA60CA
:1006EC002F4B9B692E4A43F0100393612C4B9B6953
:1006FC0003F01003FB60FB68294B9B69284A43F00D
:10070C0004039361264B9B6903F00403BB60BB6835
:10071C00234B9B69224A43F008039361204B9B694E
:10072C0003F008037B607B6800224FF4F7711D48CF
:10073C0000F00BFC00224FF6FF711B4800F005FC8B
:10074C004FF460433B6100237B610123BB6107F1E4
:10075C0010031946154800F067FA4FF4F7733B6124
:10076C0001237B610023BB610223FB6107F11003B2
:10077C0019460C4800F058FA4FF6FF733B61012301
:10078C007B610023BB610223FB6107F11003194657
:10079C00054800F049FA00BF2037BD4680BD00BFB8
:1007AC000010024000080140000C01400010014004
:1007BC0080B582B000AF786002F07AFB0349044840
:1007CC0002F060FA00BF0837BD4680BD180000205B
:1007DC000C00002080B400AF72B600BFFEE7000032
:1007EC0080B485B000AF154B9B69144A43F00103EC
:1007FC009361124B9B6903F00103BB60BB680F4B09
:10080C00DB690E4A43F08053D3610C4BDB6903F078
:10081C0080537B607B680A4B5B68FB60FB6823F052
:10082C00E063FB60FB6843F08063FB60044AFB6899
:10083C00536000BF1437BD4680BC704700100240A7
:10084C000000014080B584B000AF78607B681B6805
:10085C00B3F1804F13D10C4BDB690B4A43F001030E
:10086C00D361094BDB6903F00103FB60FB680022D9
:10087C0000211C2000F0A1F91C2000F0BAF900BFE7
:10088C001037BD4680BD00BF0010024080B400AFE1
:10089C00FEE780B400AFFEE780B400AFFEE780B4A3
:1008AC0000AFFEE780B400AFFEE780B400AF00BF3E
:1008BC00BD4680BC704780B400AF00BFBD4680BC55
:1008CC00704780B400AF00BFBD4680BC704780B598
:1008DC0000AF00F07FF800BF80BD000080B500AF16
:1008EC00024800F0DBFF00BF80BD00BFB800002055
:1008FC0080B400AF00BFBD4680BC7047FFF7F8FF67
:10090C000B480C490C4A002302E0D458C450043361
:10091C00C4188C42F9D3094A094C002301E0136036
:10092C000432A242FBD302F0F3FAFFF717FE704732
:10093C00000000207C000020B82F00087C00002064
:10094C0060010020FEE7000080B500AF084B1B687B
:10095C00074A43F010031360032000F023F90F2023
:10096C0000F008F8FFF73CFF0023184680BD00BFDD
:10097C000020024080B582B000AF7860124B1A683C
:10098C00124B1B7819464FF47A73B3FBF1F3B2FB9D
:10099C00F3F3184600F03BF90346002B01D001237A
:1009AC000EE07B680F2B0AD8002279684FF0FF30DD
:1009BC0000F003F9064A7B681360002300E0012372
:1009CC0018460837BD4680BD4C000020540000205E
:1009DC005000002080B400AF054B1B781A46054B25
:1009EC001B681344034A136000BFBD4680BC7047AC
:1009FC00540000200001002080B400AF024B1B68A3
:100A0C001846BD4680BC70470001002080B485B0FC
:100A1C0000AF78607B6803F00703FB600C4BDB686E
:100A2C00BB60BA684FF6FF031340BB60FB681A0249
:100A3C00BB68134343F0BF6343F40033BB60044A09
:100A4C00BB68D36000BF1437BD4680BC704700BF85
:100A5C0000ED00E080B400AF044BDB681B0A03F030
:100A6C0007031846BD4680BC704700BF00ED00E090
:100A7C0080B483B000AF0346FB7197F90730002BAD
:100A8C000BDBFB7903F01F02064997F907305B0972
:100A9C00012000FA02F241F8232000BF0C37BD46BA
:100AAC0080BC704700E100E080B483B000AF034627
:100ABC003960FB7197F90730002B0ADB3B68DAB21F
:100ACC000C4997F907301201D2B20B4483F800237A
:100ADC000AE03B68DAB20849FB7903F00F03043BE8
:100AEC001201D2B20B441A7600BF0C37BD4680BC43
:100AFC00704700BF00E100E000ED00E080B489B079
:100B0C0000AFF860B9607A60FB6803F00703FB6123
:100B1C00FB69C3F10703042B28BF0423BB61FB69EA
:100B2C000433062B02D9FB69033B00E000237B61F5
:100B3C004FF0FF32BB6902FA03F3DA43BB681A4089
:100B4C007B699A404FF0FF317B6901FA03F3D9437B
:100B5C007B680B40134318462437BD4680BC704756
:100B6C0080B582B000AF78607B68013BB3F1807FC9
:100B7C0001D301230FE00A4A7B68013B53600F212C
:100B8C004FF0FF30FFF790FF054B00229A60044BAB
:100B9C0007221A60002318460837BD4680BD00BFE7
:100BAC0010E000E080B582B000AF78607868FFF7A5
:100BBC002DFF00BF0837BD4680BD80B586B000AFA5
:100BCC000346B9607A60FB7300237B61FFF742FF39
:100BDC0078617A68B9687869FFF790FF024697F9EF
:100BEC000F3011461846FFF75FFF00BF1837BD46A0
:100BFC0080BD80B582B000AF0346FB7197F907301A
:100C0C001846FFF735FF00BF0837BD4680BD80B5DD
:100C1C0082B000AF78607868FFF7A2FF03461846F1
:100C2C000837BD4680BD000080B48BB000AF786043
:100C3C00396000237B6200233B6248E101227B6A1E
:100C4C0002FA03F3FB613B681B68FA691340BB6152
:100C5C00BA69FB699A4240F037813B685B68A34AEA
:100C6C0093425ED0A14A934275D8A14A934258D080
:100C7C009F4A93426FD89F4A934252D09D4A9342C7
:100C8C0069D89D4A93424CD09B4A934263D89B4A65
:100C9C00934246D0994A93425DD8122B2AD8122BF4
:100CAC0059D801A252F823F02F0D0008090D0008A5
:100CBC001B0D00085D0D0008630D0008630D000896
:100CCC00630D0008630D0008630D0008630D000838
:100CDC00630D0008630D0008630D0008630D000828
:100CEC00630D0008630D0008630D0008110D00086A
:100CFC00250D0008824A934213D02CE03B68DB6838
:100D0C003B6229E03B68DB6804333B6224E03B68D0
:100D1C00DB6808333B621FE03B68DB680C333B62EB
:100D2C001AE03B689B68002B02D104233B6213E062
:100D3C003B689B68012B05D108233B627B68FA69F1
:100D4C001A6109E008233B627B68FA695A6103E087
:100D5C0000233B6200E000BFBB69FF2B01D87B681E
:100D6C0001E07B6804337B61BB69FF2B02D87B6A93
:100D7C009B0002E07B6A083B9B003B617B691A6825
:100D8C000F213B6901FA03F3DB431A40396A3B69D3
:100D9C0001FA03F31A437B691A603B685B6803F042
:100DAC008053002B00F09080564B9B69554A43F0C2
:100DBC0001039361534B9B6903F00103BB60BB6858
:100DCC00514A7B6A9B08023352F82330FB607B6AE2
:100DDC0003F003039B000F2202FA03F3DB43FA68D0
:100DEC001340FB607B68494A93420DD07B68484AAC
:100DFC00934207D07B68474A934201D1022304E017
:100E0C00032302E0012300E000237A6A02F00302CC
:100E1C0092009340FA681343FB603B497B6A9B0842
:100E2C000233FA6841F823203B685B6803F48013B3
:100E3C00002B06D0384B9A683749BB6913438B603B
:100E4C0006E0354B9A68BB69DB43334913408B6032
:100E5C003B685B6803F40013002B06D02E4BDA685A
:100E6C002D49BB691343CB6006E02B4BDA68BB6999
:100E7C00DB4329491340CB603B685B6803F40033C8
:100E8C00002B06D0244B5A682349BB6913434B6093
:100E9C0006E0214B5A68BB69DB431F4913404B608A
:100EAC003B685B6803F48033002B06D01A4B1A683E
:100EBC001949BB6913430B6006E0174B1A68BB69F1
:100ECC00DB43154913400B607B6A01337B623B6843
:100EDC001A687B6A22FA03F3002B7FF4AFAE00BFD3
:100EEC0000BF2C37BD4680BC704700BF00003210DD
:100EFC000000311000002210000021100000121020
:100F0C0000001110001002400000014000080140D8
:100F1C00000C0140001001400004014080B485B079
:100F2C0000AF78600B467B807B689A687B881340A7
:100F3C00002B02D00123FB7301E00023FB73FB7B2E
:100F4C0018461437BD4680BC704780B483B000AFE0
:100F5C0078600B467B8013467B707B78002B03D02C
:100F6C007A887B681A6103E07B881A047B681A61B3
:100F7C0000BF0C37BD4680BC704780B485B000AF55
:100F8C0078600B467B807B68DB68FB607A88FB684B
:100F9C0013401A04FB68D9437B880B401A437B68C7
:100FAC001A6100BF1437BD4680BC704780B586B04F
:100FBC0000AF78607B68002B01D101236CE27B6869
:100FCC001B6803F00103002B00F08780924B5B68D9
:100FDC0003F00C03042B0CD08F4B5B6803F00C0359
:100FEC00082B12D18C4B5B6803F48033B3F5803F34
:100FFC000BD1894B1B6803F40033002B6CD07B683E
:10100C005B68002B68D1012346E27B685B68B3F513
:10101C00803F06D1804B1B687F4A43F480331360BA
:10102C002EE07B685B68002B0CD17B4B1B687A4AEB
:10103C0023F480331360784B1B68774A23F48023A6
:10104C0013601DE07B685B68B3F5A02F0CD1724B6D
:10105C001B68714A43F4802313606F4B1B686E4A04
:10106C0043F4803313600BE06B4B1B686A4A23F428
:10107C0080331360684B1B68674A23F4802313602A
:10108C007B685B68002B13D0FFF7B6FC386108E077
:10109C00FFF7B2FC02463B69D31A642B01D9032338
:1010AC00FAE15D4B1B6803F40033002BF0D014E025
:1010BC00FFF7A2FC386108E0FFF79EFC02463B6993
:1010CC00D31A642B01D90323E6E1534B1B6803F4B9
:1010DC000033002BF0D100E000BF7B681B6803F0ED
:1010EC000203002B63D04C4B5B6803F00C03002B0A
:1010FC000BD0494B5B6803F00C03082B1CD1464BFF
:10110C005B6803F48033002B16D1434B1B6803F050
:10111C000203002B05D07B681B69012B01D0012336
:10112C00BAE13D4B1B6823F0F8027B685B69DB007E
:10113C00394913430B603AE07B681B69002B20D0C4
:10114C00364B01221A60FFF757FC386108E0FFF7B5
:10115C0053FC02463B69D31A022B01D903239BE1B2
:10116C002D4B1B6803F00203002BF0D02A4B1B689D
:10117C0023F0F8027B685B69DB00274913430B60A3
:10118C0015E0264B00221A60FFF736FC386108E0A8
:10119C00FFF732FC02463B69D31A022B01D9032319
:1011AC007AE11D4B1B6803F00203002BF0D17B6826
:1011BC001B6803F00803002B3AD07B689B69002B5B
:1011CC0019D0174B01221A60FFF716FC386108E0A2
:1011DC00FFF712FC02463B69D31A022B01D90323F9
:1011EC005AE10D4B5B6A03F00203002BF0D0012097
:1011FC0000F09AFA1CE00A4B00221A60FFF7FCFB85
:10120C0038610FE0FFF7F8FB02463B69D31A022B5B
:10121C0008D9032340E100BF001002400000424205
:10122C00800442429E4B5B6A03F00203002BE9D11F
:10123C007B681B6803F00403002B00F0A6800023DE
:10124C00FB75974BDB6903F08053002B0DD1944B4E
:10125C00DB69934A43F08053D361914BDB6903F014
:10126C008053BB60BB680123FB758E4B1B6803F47A
:10127C008073002B18D18B4B1B688A4A43F4807304
:10128C001360FFF7B9FB386108E0FFF7B5FB0246C6
:10129C003B69D31A642B01D90323FDE0814B1B68F6
:1012AC0003F48073002BF0D07B68DB68012B06D134
:1012BC007B4B1B6A7A4A43F0010313622DE07B6877
:1012CC00DB68002B0CD1764B1B6A754A23F00103AB
:1012DC001362734B1B6A724A23F0040313621CE003
:1012EC007B68DB68052B0CD16D4B1B6A6C4A43F099
:1012FC00040313626A4B1B6A694A43F001031362CD
:10130C000BE0674B1B6A664A23F001031362644BC4
:10131C001B6A634A23F0040313627B68DB68002BAF
:10132C0015D0FFF769FB38610AE0FFF765FB024651
:10133C003B69D31A41F28832934201D90323ABE0C3
:10134C00574B1B6A03F00203002BEED014E0FFF79F
:10135C0053FB38610AE0FFF74FFB02463B69D31A97
:10136C0041F28832934201D9032395E04C4B1B6A1E
:10137C0003F00203002BEED1FB7D012B05D1484B72
:10138C00DB69474A23F08053D3617B68DB69002B10
:10139C0000F08180424B5B6803F00C03082B61D09A
:1013AC007B68DB69022B46D13F4B00221A60FFF7AA
:1013BC0023FB386108E0FFF71FFB02463B69D31A99
:1013CC00022B01D9032367E0354B1B6803F0007334
:1013DC00002BF0D17B681B6AB3F5803F08D1304BF2
:1013EC005B6823F400327B689B682D4913434B6088
:1013FC002B4B5B6823F474127B68196A7B685B6AFD
:10140C000B43274913434B60274B01221A60FFF70C
:10141C00F3FA386108E0FFF7EFFA02463B69D31A9A
:10142C00022B01D9032337E01D4B1B6803F000731B
:10143C00002BF0D02FE01C4B00221A60FFF7DCFAD7
:10144C00386108E0FFF7D8FA02463B69D31A022B41
:10145C0001D9032320E0124B1B6803F00073002B0F
:10146C00F0D118E07B68DB69012B01D1012313E07B
:10147C000B4B5B68FB60FB6803F480327B681B6A78
:10148C009A4206D1FB6803F470127B685B6A9A423D
:10149C0001D0012300E0002318461837BD4680BD5B
:1014AC0000100240007000406000424280B584B0E1
:1014BC0000AF786039607B68002B01D10123D0E04C
:1014CC006A4B1B6803F007033A689A4210D9674BC2
:1014DC001B6823F0070265493B6813430B60634BA1
:1014EC001B6803F007033A689A4201D00123B8E065
:1014FC007B681B6803F00203002B20D07B681B6801
:10150C0003F00403002B05D0594B5B68584A43F495
:10151C00E06353607B681B6803F00803002B05D065
:10152C00534B5B68524A43F460535360504B5B68B7
:10153C0023F0F0027B689B684D4913434B607B683A
:10154C001B6803F00103002B40D07B685B68012B08
:10155C0007D1474B1B6803F40033002B15D1012333
:10156C007FE07B685B68022B07D1414B1B6803F063
:10157C000073002B09D1012373E03D4B1B6803F072
:10158C000203002B01D101236BE0394B5B6823F084
:10159C0003027B685B68364913434B60FFF72CFAF8
:1015AC00F8600AE0FFF728FA0246FB68D31A41F20A
:1015BC008832934201D9032353E02D4B5B6803F02F
:1015CC000C027B685B689B009A42EBD1274B1B6833
:1015DC0003F007033A689A4210D2244B1B6823F09D
:1015EC00070222493B6813430B60204B1B6803F036
:1015FC0007033A689A4201D0012332E07B681B68EA
:10160C0003F00403002B08D0194B5B6823F4E06251
:10161C007B68DB68164913434B607B681B6803F0DF
:10162C000803002B09D0124B5B6823F460527B68D3
:10163C001B69DB000E4913434B6000F021F8024696
:10164C000B4B5B681B0903F00F030A49CB5C22FAB6
:10165C0003F3094A1360094B1B681846FFF78AF914
:10166C00002318461037BD4680BD00BF0020024045
:10167C00001002408C2F00084C000020500000206D
:10168C0080B487B000AF0023FB600023BB60002355
:10169C007B6100237B6000233B611E4B5B68FB601E
:1016AC00FB6803F00C03042B02D0082B03D027E0BB
:1016BC00194B3B6127E0FB689B0C03F00F03174AA7
:1016CC00D35C7B60FB6803F48033002B10D0114B90
:1016DC005B685B0C03F00103114AD35CBB607B6855
:1016EC000D4A02FB03F2BB68B2FBF3F37B6104E02F
:1016FC007B680C4A02FB03F37B617B693B6102E074
:10170C00054B3B6100BF3B6918461C37BD4680BC8E
:10171C00704700BF0010024000127A009C2F000896
:10172C00AC2F000800093D0080B485B000AF786094
:10173C000A4B1B680A4AA2FB03235B0A7A6802FB6A
:10174C0003F3FB6000BFFB685A1EFA60002BF9D153
:10175C0000BF00BF1437BD4680BC70474C00002052
:10176C00D34D621080B582B000AF78607B68002BDF
:10177C0001D1012341E07B6893F83D30DBB2002BB3
:10178C0006D17B68002283F83C207868FFF75AF872
:10179C007B68022283F83D207B681A687B680433DF
:1017AC001946104600F056FA7B68012283F8462051
:1017BC007B68012283F83E207B68012283F83F205E
:1017CC007B68012283F840207B68012283F841204A
:1017DC007B68012283F842207B68012283F8432036
:1017EC007B68012283F844207B68012283F8452022
:1017FC007B68012283F83D20002318460837BD463C
:10180C0080BD000080B485B000AF78607B6893F831
:10181C003D30DBB2012B01D0012335E07B68022285
:10182C0083F83D207B681B68DA687B681B6842F094
:10183C000102DA607B681B68164A934209D07B6808
:10184C001B68B3F1804F04D07B681B68124A93422B
:10185C0011D17B681B689B6803F00703FB60FB6876
:10186C00062B10D07B681B681A687B681B6842F0DB
:10187C0001021A6007E07B681B681A687B681B68AA
:10188C0042F001021A60002318461437BD4680BC92
:10189C00704700BF002C01400004004080B584B0AC
:1018AC0000AF78607B681B68DB68FB607B681B683B
:1018BC001B69BB60BB6803F00203002B20D0FB68E4
:1018CC0003F00203002B1BD07B681B686FF0020235
:1018DC001A617B6801221A777B681B689B6903F08D
:1018EC000303002B03D0786800F098F905E07868C2
:1018FC0000F08BF9786800F09AF97B6800221A776F
:10190C00BB6803F00403002B20D0FB6803F0040336
:10191C00002B1BD07B681B686FF004021A617B687C
:10192C0002221A777B681B689B6903F44073002BB7
:10193C0003D0786800F072F905E0786800F065F97A
:10194C00786800F074F97B6800221A77BB6803F0A2
:10195C000803002B20D0FB6803F00803002B1BD0DE
:10196C007B681B686FF008021A617B6804221A7787
:10197C007B681B68DB6903F00303002B03D07868DA
:10198C0000F04CF905E0786800F03FF9786800F059
:10199C004EF97B6800221A77BB6803F01003002B0A
:1019AC0020D0FB6803F01003002B1BD07B681B6856
:1019BC006FF010021A617B6808221A777B681B682B
:1019CC00DB6903F44073002B03D0786800F026F930
:1019DC0005E0786800F019F9786800F028F97B6860
:1019EC0000221A77BB6803F00103002B0CD0FB68B4
:1019FC0003F00103002B07D07B681B686FF001021A
:101A0C001A617868FEF7D4FEBB6803F08003002BE4
:101A1C000CD0FB6803F08003002B07D07B681B689D
:101A2C006FF080021A61786800F06FFABB6803F0FF
:101A3C004003002B0CD0FB6803F04003002B07D0B5
:101A4C007B681B686FF040021A61786800F0F8F848
:101A5C00BB6803F02003002B0CD0FB6803F02003C1
:101A6C00002B07D07B681B686FF020021A61786826
:101A7C0000F042FA00BF1037BD4680BD80B584B07F
:101A8C0000AF786039600023FB737B6893F83C30BF
:101A9C00012B01D10223B4E07B68012283F83C20A6
:101AAC007B68022283F83D207B681B689B68BB60C7
:101ABC00BB6823F07703BB60BB6823F47F43BB6038
:101ACC007B681B68BA689A603B681B68B3F5005F5B
:101ADC003ED0B3F5005F00F28780B3F5805F00F075
:101AEC008680B3F5805F7FD8702B1AD0702B7BD893
:101AFC00602B50D0602B77D8502B3CD0502B73D808
:101B0C00402B58D0402B6FD8302B64D0302B6BD857
:101B1C00202B60D0202B67D8002B5CD0102B5AD0F8
:101B2C0062E07B6818683B6899683B685A683B6858
:101B3C00DB6800F06AF97B681B689B68BB60BB685C
:101B4C0043F07703BB607B681B68BA689A604FE010
:101B5C007B6818683B6899683B685A683B68DB6827
:101B6C0000F053F97B681B689A687B681B6842F429
:101B7C0080429A603CE07B6818683B6859683B6817
:101B8C00DB681A4600F0CAF87B681B6850211846BF
:101B9C0000F021F92CE07B6818683B6859683B68B9
:101BAC00DB681A4600F0E8F87B681B686021184671
:101BBC0000F011F91CE07B6818683B6859683B68B9
:101BCC00DB681A4600F0AAF87B681B6840211846AF
:101BDC0000F001F90CE07B681A683B681B68194639
:101BEC00104600F0F8F803E00123FB7300E000BF9F
:101BFC007B68012283F83D207B68002283F83C201F
:101C0C00FB7B18461037BD4680BD80B483B000AF57
:101C1C00786000BF0C37BD4680BC704780B483B081
:101C2C0000AF786000BF0C37BD4680BC704780B4F5
:101C3C0083B000AF786000BF0C37BD4680BC7047E6
:101C4C0080B483B000AF786000BF0C37BD4680BC59
:101C5C007047000080B485B000AF786039607B6855
:101C6C001B68FB607B682B4A934207D07B68B3F1FF
:101C7C00804F03D07B68284A934208D1FB6823F03D
:101C8C007003FB603B685B68FA681343FB607B681E
:101C9C00204A934207D07B68B3F1804F03D07B6816
:101CAC001D4A934208D1FB6823F44073FB603B68E8
:101CBC00DB68FA681343FB60FB6823F080023B6827
:101CCC005B691343FB607B68FA681A603B689A682F
:101CDC007B68DA623B681A687B689A627B680D4A9B
:101CEC00934203D13B681A697B681A637B680122B3
:101CFC005A617B681B6903F00103002B05D07B68DC
:101D0C001B6923F001027B681A6100BF1437BD46C2
:101D1C0080BC7047002C01400004004080B487B0A8
:101D2C0000AFF860B9607A60FB681B6A7B61FB6886
:101D3C001B6A23F00102FB681A62FB689B693B611A
:101D4C003B6923F0F0033B617B681B013A69134349
:101D5C003B617B6923F00A037B617A69BB6813439F
:101D6C007B61FB683A699A61FB687A691A6200BF09
:101D7C001C37BD4680BC704780B487B000AFF8609C
:101D8C00B9607A60FB681B6A7B61FB681B6A23F095
:101D9C001002FB681A62FB689B693B613B6923F488
:101DAC0070433B617B681B033A6913433B617B695E
:101DBC0023F0A0037B61BB681B017A6913437B6131
:101DCC00FB683A699A61FB687A691A6200BF1C3732
:101DDC00BD4680BC704780B485B000AF7860396078
:101DEC007B689B68FB60FB6823F07003FB603A68C0
:101DFC00FB68134343F00703FB607B68FA689A6047
:101E0C0000BF1437BD4680BC704780B487B000AFAC
:101E1C00F860B9607A603B60FB689B687B617B69AA
:101E2C0023F47F437B613B681A027B681A43BB68CF
:101E3C0013437A6913437B61FB687A699A6000BF2C
:101E4C001C37BD4680BC704780B485B000AF78604D
:101E5C0039607B6893F83C30012B01D1022341E0BF
:101E6C007B68012283F83C207B68022283F83D20AA
:101E7C007B681B685B68FB607B681B689B68BB604E
:101E8C00FB6823F07003FB603B681B68FA68134324
:101E9C00FB607B681B68FA685A607B681B68144A95
:101EAC00934209D07B681B68B3F1804F04D07B68E8
:101EBC001B68104A93420CD1BB6823F08003BB60B3
:101ECC003B685B68BA681343BB607B681B68BA6885
:101EDC009A607B68012283F83D207B68002283F89E
:101EEC003C20002318461437BD4680BC704700BF09
:101EFC00002C01400004004080B483B000AF786037
:101F0C0000BF0C37BD4680BC704780B483B000AFB7
:101F1C00786000BF0C37BD4680BC704780B584B07C
:101F2C0000AFF860084611461A4603467B810B4603
:101F3C003B811346FB8097F82830092B00F2C681B1
:101F4C0001A252F823F000BF7D1F0008D31F000828
:101F5C00292000087F200008D52000082B2100082C
:101F6C0081210008D72100082D22000883220008B7
:101F7C007B8900221946F868FEF7E7FF3B890022AF
:101F8C001946F868FEF7E1FFFB8800221946F8684D
:101F9C00FEF7DBFF3B8B00221946F868FEF7D5FFF6
:101FAC00BB8B00221946F868FEF7CFFF3B8C002252
:101FBC001946F868FEF7C9FFBB8C01221946F86870
:101FCC00FEF7C3FFADE17B8901221946F868FEF7E5
:101FDC00BCFF3B8900221946F868FEF7B6FFFB8868
:101FEC0000221946F868FEF7B0FF3B8B0122194618
:101FFC00F868FEF7AAFFBB8B01221946F868FEF7BA
:10200C00A4FF3B8C01221946F868FEF79EFFBB8C9F
:10201C0001221946F868FEF798FF82E17B890022BD
:10202C001946F868FEF791FF3B8900221946F868BB
:10203C00FEF78BFFFB8801221946F868FEF785FF37
:10204C003B8B00221946F868FEF77FFFBB8B002202
:10205C001946F868FEF779FF3B8C01221946F8689F
:10206C00FEF773FFBB8C00221946F868FEF76DFF74
:10207C0057E17B8900221946F868FEF766FF3B8919
:10208C0000221946F868FEF760FFFB88002219460B
:10209C00F868FEF75AFF3B8B00221946F868FEF7EA
:1020AC0054FFBB8B01221946F868FEF74EFF3B8CA0
:1020BC0001221946F868FEF748FFBB8C002219462E
:1020CC00F868FEF742FF2CE17B8901221946F8687B
:1020DC00FEF73BFF3B8900221946F868FEF735FFF7
:1020EC00FB8800221946F868FEF72FFF3B8B012274
:1020FC001946F868FEF729FFBB8B01221946F868D0
:10210C00FEF723FF3B8C00221946F868FEF71DFFF3
:10211C00BB8C00221946F868FEF717FF01E17B899A
:10212C0000221946F868FEF710FF3B890122194678
:10213C00F868FEF70AFFFB8800221946F868FEF7DC
:10214C0004FF3B8B00221946F868FEF7FEFEBB8BA2
:10215C0001221946F868FEF7F8FE3B8C002219465E
:10216C00F868FEF7F2FEBB8C00221946F868FEF701
:10217C00ECFED6E07B8900221946F868FEF7E5FEF6
:10218C003B8901221946F868FEF7DFFEFB88002226
:10219C001946F868FEF7D9FE3B8B00221946F86801
:1021AC00FEF7D3FEBB8B00221946F868FEF7CDFE76
:1021BC003B8C00221946F868FEF7C7FEBB8C002248
:1021CC001946F868FEF7C1FEABE07B890022194680
:1021DC00F868FEF7BAFE3B8900221946F868FEF74C
:1021EC00B4FEFB8800221946F868FEF7AEFE3B8B66
:1021FC0001221946F868FEF7A8FEBB8B012219468E
:10220C00F868FEF7A2FE3B8C01221946F868FEF72F
:10221C009CFEBB8C01221946F868FEF796FE80E006
:10222C007B8900221946F868FEF78FFE3B89002255
:10223C001946F868FEF789FEFB8800221946F868F3
:10224C00FEF783FE3B8B00221946F868FEF77DFEF5
:10225C00BB8B00221946F868FEF777FE3B8C0022F8
:10226C001946F868FEF771FEBB8C00221946F86817
:10227C00FEF76BFE55E07B8900221946F868FEF7E5
:10228C0064FE3B8900221946F868FEF75EFEFB8867
:10229C0000221946F868FEF758FE3B8B00221946BF
:1022AC00F868FEF752FEBB8B01221946F868FEF760
:1022BC004CFE3B8C00221946F868FEF746FEBB8CA0
:1022CC0000221946F868FEF740FE2AE07B890122BD
:1022DC001946F868FEF739FE3B8901221946F86861
:1022EC00FEF733FEFB8801221946F868FEF72DFE37
:1022FC003B8B01221946F868FEF727FEBB8B0122A7
:10230C001946F868FEF721FE3B8C01221946F86845
:10231C00FEF71BFEBB8C01221946F868FEF715FE72
:10232C0000BF00BF1037BD4680BD00BF80B586B072
:10233C0002AFF860084611461A4603467B810B46ED
:10234C003B811346FB80BB6A013B0E2B00F22181C3
:10235C0001A252F823F000BF29240008A123000891
:10236C00C3230008E5230008072400087324000891
:10237C007324000895240008EF2400084725000862
:10238C009F250008A1230008C3230008E5230008AB
:10239C0007240008FB883A89798902200090F868A4
:1023AC0000F028F9BB8C3A8CB98B00200090B869EE
:1023BC0000F020F917E1FB883A8979890120009017
:1023CC00F86800F017F9BB8C3A8CB98B00200090A0
:1023DC00B86900F00FF906E1FB883A897989002089
:1023EC000090F86800F006F9BB8C3A8CB98B02208F
:1023FC000090B86900F0FEF8F5E0FB883A8979891D
:10240C0000200090F86800F0F5F8BB8C3A8CB98B82
:10241C0001200090B86900F0EDF8E4E07B8900221F
:10242C001946F868FEF791FD3B8900221946F868B9
:10243C00FEF78BFDFB8800221946F868FEF785FD38
:10244C00BB8B00221946B869FEF77FFD3B8C00223E
:10245C001946B869FEF779FDBB8C00221946B8699C
:10246C00FEF773FDBFE0FB883A8979890020009064
:10247C00F86800F0BFF8BB8C3A8CB98B0020009048
:10248C00B86900F0B7F8AEE03B8900221946F8684D
:10249C00FEF75BFDFB8800221946F868FEF755FD38
:1024AC003B8C00221946B869FEF74FFDBB8C00220D
:1024BC001946B869FEF749FD4D4B9B68012B40F05E
:1024CC008D807B891946F868FEF757FDBB8B194642
:1024DC00B869FEF752FD4FF4FA71022000F0B6FC19
:1024EC007CE07B8900221946F868FEF72EFDFB88FC
:1024FC0000221946F868FEF728FDBB8B002219460E
:10250C00B869FEF722FDBB8C00221946B869FEF7AC
:10251C001CFD374B9B68012B62D13B891946F8682F
:10252C00FEF72BFD3B8C1946B869FEF726FD4FF4E0
:10253C00FA71022000F08AFC52E07B8900221946D5
:10254C00F868FEF702FD3B8900221946F868FEF791
:10255C00FCFCBB8B00221946B869FEF7F6FC3B8CE1
:10256C0000221946B869FEF7F0FC214B9B68012B41
:10257C0038D1FB881946F868FEF7FFFCBB8C19466E
:10258C00B869FEF7FAFC4FF4FA71022000F05EFC19
:10259C0028E07B8900221946F868FEF7D6FC3B89B7
:1025AC0000221946F868FEF7D0FCFB880022194679
:1025BC00F868FEF7CAFCBB8B00221946B869FEF717
:1025CC00C4FC3B8C00221946B869FEF7BEFCBB8CE0
:1025DC0000221946B869FEF7B8FC04E000BF02E01F
:1025EC0000BF00E000BF00BF1037BD4680BD00BF7C
:1025FC001001002080B584B000AFF8600846114689
:10260C001A4603467B810B463B811346FB803B7E7F
:10261C00022B2CD0022B3DDC002B02D0012B13D033
:10262C0038E07B8901221946F868FEF78EFC3B895D
:10263C0000221946F868FEF788FCFB880022194630
:10264C00F868FEF782FC26E07B8900221946F868C0
:10265C00FEF77BFC3B8901221946F868FEF775FCF6
:10266C00FB8800221946F868FEF76FFC13E07B89A3
:10267C0000221946F868FEF768FC3B8900221946CF
:10268C00F868FEF762FCFB8801221946F868FEF731
:10269C005CFC00E000BF00BF1037BD4680BD0000F1
:1026AC0080B500AF194B1A68194B1B681A44194BAB
:1026BC001B689A4214BF01230023DBB21A46164B47
:1026CC001A70164B1B68002B03DD154B1B68002B77
:1026DC000DDC144B01221A600D4B1B680F4A136062
:1026EC000C4B1B680E4A13600F4B02221A60002021
:1026FC0000F05EFB0346002B05D00A4B01221A604A
:10270C00094B08221A6000BF80BD00BF5C0000208E
:10271C0058000020600000200C0100206800002000
:10272C006C0000209C0000207000002080B500AFE1
:10273C000C4B1B68002B06DC0B4B1B68094A136007
:10274C000A4B03221A60002000F032FB0346002BD8
:10275C0005D0064B08221A60054B01221A6000BFF7
:10276C0080BD00BF680000205C00002070000020CD
:10277C009C00002080B500AF164B1B78012B0BD1B1
:10278C00154B1B68002B16DC144B1B68124A13608C
:10279C00134B06221A600EE0124B1B68002B0ADC4E
:1027AC000E4B1B680C4A13600F4B1B680D4A1360D1
:1027BC000B4B04221A60002000F0FAFA0346002B9F
:1027CC0005D0074B08221A60084B01221A6000BF83
:1027DC0080BD00BF0C0100206800002060000020BC
:1027EC00700000206C000020580000209C0000208D
:1027FC0080B500AF0C4B1B68002B06DC0B4B1B6829
:10280C00094A13600A4B04221A60002000F0D0FA27
:10281C000346002B05D0064B08221A60054B0122FB
:10282C001A6000BF80BD00BF6C0000205800002063
:10283C00700000209C00002080B500AF0C4B1B6882
:10284C00002B06DC0B4B1B68094A13600A4B052254
:10285C001A60002000F0ACFA0346002B05D0064BA2
:10286C0008221A60054B01221A6000BF80BD00BF10
:10287C006C0000205C000020700000209C000020F8
:10288C0080B500AF164B1B78012B0BD1154B1B6879
:10289C00002B16DC144B1B68124A1360134B0722D7
:1028AC001A600EE00F4B1B68002B0ADC0E4B1B68EA
:1028BC000C4A13600E4B1B680E4A13600B4B022222
:1028CC001A60002000F074FA0346002B05D0074B69
:1028DC0008221A60084B01221A6000BF80BD00BF9D
:1028EC000C0100206C000020600000207000002013
:1028FC0058000020680000209C00002080B500AF2C
:10290C000A4B1B68002B06DC094B1B68074A13603B
:10291C00084B02221A60002000F04AFA0346002BF2
:10292C0002D0044B08221A6000BF80BD6800002052
:10293C00580000207000002080B500AF084B5B6889
:10294C00012B02D1074B02221A60002000F030FA52
:10295C000346002B02D0034B08221A6000BF80BD37
:10296C00100100207000002080B500AF084B5B68A0
:10297C00012B02D1074B03221A60002000F018FA39
:10298C000346002B02D0034B08221A6000BF80BD07
:10299C00100100207000002080B500AF084B5B6870
:1029AC00012B02D1074B04221A60002000F000FA20
:1029BC000346002B02D0034B08221A6000BF80BDD7
:1029CC00100100207000002080B500AF084B5B6840
:1029DC00012B02D1074B05221A60002000F0E8F908
:1029EC000346002B02D0034B08221A6000BF80BDA7
:1029FC00100100207000002080B500AF214B1A6838
:102A0C00214B1B689A4203DA1F4B1B681D4A13604B
:102A1C00012000F0CDF90346002B13D0194B1B6895
:102A2C00632B05DC174B1B680133164A136009E056
:102A3C00164B01221A60164B1A68164B1B6813446E
:102A4C00104A1360022000F0B3F90346002B03D0A8
:102A5C000C4B1B680C4A1360002000F0A9F90346CC
:102A6C00002B0DD0084B1B68064A1360084B1B68E3
:102A7C00094A1360094B0A221A60044B01221A609E
:102A8C0000BF80BD08010020600000209C000020D9
:102A9C00580000205C000020040100207000002081
:102AAC0080B500AF214B1B68002B02DC1F4B0122B1
:102ABC001A60012000F07CF90346002B11D01B4B4F
:102ACC001A681B4B1B689A4205DA184B1B680133BA
:102ADC00164A136005E0174B01221A60134B0022B3
:102AEC001A60022000F064F90346002B03D00F4B50
:102AFC001B68114A1360002000F05AF90346002BA2
:102B0C0011D00D4B1B68094A13600C4B1B680C4A07
:102B1C0013600A4B1B680B4A13600B4B01221A60A3
:102B2C00044B01221A6000BF80BD00BF980000203A
:102B3C00580000209C0000205C0000206400002055
:102B4C00680000206C0000207000002080B500AFF1
:102B5C00224B1A68224B1B689A4203DA204B1B68E3
:102B6C001E4A1360012000F023F90346002B15D0F8
:102B7C001A4B1A681A4B1B681A441A4B1B689A4258
:102B8C0005DA164B1B680133144A136006E0164B2A
:102B9C0001221A60124B1B68104A1360022000F0CD
:102BAC0007F90346002B03D00C4B1B680F4A13602C
:102BBC00002000F0FDF80346002B0DD00B4B1B68DA
:102BCC00064A1360064B1B68094A1360094B09221D
:102BDC001A60054B01221A6000BF80BD0401002061
:102BEC005C000020600000209C00002058000020A9
:102BFC00980000207000002080B400AF054B1B68CB
:102C0C00054A1360034B1B68044A136000BFBD46A2
:102C1C0080BC704764000020680000206C0000201D
:102C2C0080B500AF164B1B68013B062B25D801A2C3
:102C3C0052F823F05D2C0008632C0008692C000866
:102C4C007B2C0008812C00086F2C0008752C0008C8
:102C5C00FFF726FD12E0FFF769FD0FE0FFF78AFD95
:102C6C000CE0FFF7C5FD09E0FFF748FE06E0FFF7B3
:102C7C00E3FD03E0FFF704FE00E000BF00BF80BDF2
:102C8C007000002080B584B000AF786039600023FC
:102C9C00FB6077E03F4AFB68134419783E4AFB68B7
:102CAC0013440A461A703D4AFB6813441978394A92
:102CBC00FB6813440A461A70FB689B007A6813443D
:102CCC001868FB685B003A6813441B881946FEF7CA
:102CDC0025F903461946314AFB6813440A461A7013
:102CEC002D4AFB6813441A782A49FB680B441B785D
:102CFC009A4244D1274AFB6813441A782749FB6847
:102D0C000B441B789A423AD1254AFB6813441A7833
:102D1C002149FB680B441B789A4218D01E4AFB6869
:102D2C00134419781E4AFB6813440A461A701C4A4D
:102D3C00FB6813441B78002B21D11A4AFB681344FF
:102D4C0001221A70184B4FF4FA721A6017E0164BE6
:102D5C001B68013B144A1360134B1B68002B0EDCE1
:102D6C00114B4FF4FA721A600D4AFB6813441B782E
:102D7C00002B04D10D4AFB68134401221A70FB6826
:102D8C000133FB60FB68022B84DD00BF00BF1037F2
:102D9C00BD4680BDA4000020A8000020A00000209B
:102DAC00AC000020B000002074000020B400002013
:102DBC0080B483B000AF78607B68022B01D900230C
:102DCC000DE0094A7B6813441B78012B06D1064A97
:102DDC007B68134400221A70012300E0002318467C
:102DEC000C37BD4680BC7047B000002080B500AFEA
:102DFC00154B1B68083B072B23D801A252F823F074
:102E0C002D2E0008332E0008392E00084F2E0008F6
:102E1C003F2E0008432E0008472E00084B2E0008BA
:102E2C00FFF7EAFD0EE0FFF73BFE0BE0FFF78EFE2F
:102E3C0008E0FFF781FDFFF797FDFFF7ADFDFFF70A
:102E4C00C3FD00BF00BF80BD7000002080B483B004
:102E5C0000AF78603960094B1B683A6892FBF3F25B
:102E6C0007497B6841F82320064A7B68002142F819
:102E7C00231000BF0C37BD4680BC70477800002083
:102E8C00380100201001002080B584B000AFF8603C
:102E9C00B9607A60054A7B681360B968F868FFF717
:102EAC00D5FF00BF1037BD4680BD00BF78000020A5
:102EBC0080B483B000AF00237B601CE0124A7B68B7
:102ECC0052F82330002B08DD0F4A7B6852F8233070
:102EDC005A1E0D497B6841F823200B4A7B6852F837
:102EEC002330002B04DC094A7B68012142F82310B3
:102EFC007B6801337B607B68092BDFDD00BF00BF83
:102F0C000C37BD4680BC70473801002010010020F2
:102F1C0070B500260C4D0D4C641BA410A64209D1B3
:102F2C0000F022F800260A4D0A4C641BA410A6429D
:102F3C0005D170BD55F8043B98470136EEE755F8BE
:102F4C00043B98470136F2E7B02F0008B02F000879
:102F5C00B02F0008B42F000803460244934200D15E
:102F6C00704703F8011BF9E7F8B500BFF8BC08BCC3
:102F7C009E467047F8B500BFF8BC08BC9E4670472B
:102F8C00000000000000000001020304060708090D
:102F9C0002030405060708090A0B0C0D0E0F10108E
:042FAC00010200001E
:042FB00031010008E3
:042FB4000D01000803
:102FB800000C0140000C014000400080001001405E
:102FC8000010014000100140002000400080000077
:102FD80000000000010000000000000001000000E7
:102FE80000000000010000000000000001000000D7
:102FF80000000000010000000100000000127A003B
:1030080010000000010000000300000002000000A2
:103018000500000003000000050000000500000096
:0C30280001000000F40100000A0000009C
:0400000508000909DD
:00000001FF
