:020000040800F2
:1000000000280020D5080008650800086B080008D3
:1000100071080008770800087D080008000000004B
:10002000000000000000000000000000830800083D
:100030008F080008000000009B080008A7080008BF
:100040001D0900081D0900081D0900081D090008F8
:100050001D0900081D0900081D0900081D090008E8
:100060001D0900081D0900081D0900081D090008D8
:100070001D0900081D0900081D0900081D090008C8
:100080001D0900081D0900081D0900081D090008B8
:100090001D0900081D0900081D0900081D090008A8
:1000A0001D0900081D0900081D0900081D09000898
:1000B000B50800081D090008000000001D0900081F
:1000C0001D09000800000000000000001D090008D4
:1000D000000000001D0900081D09000800000000C4
:1000E0001D0900081D0900081D0900080000000086
:1000F0000000000000000000000000000000000000
:0C01000000000000000000005FF808F1A3
:10010C0010B5054C237833B9044B13B10448AFF345
:10011C0000800123237010BD880000200000000027
:10012C008835000808B5034B1BB103490348AFF3EE
:10013C00008008BD000000008C00002088350008FD
:10014C0080B400AF064B1B68013B054A1360054B9E
:10015C001B68013B034A136000BFBD4680BC70475F
:10016C00680000206C00002080B400AF454B1B6879
:10017C00013B454A82FB03129210DB17D31A434A08
:10018C001360404B1B68591E3F4B83FB01239A1095
:10019C00CB17D21A13469B0013445B00CA1A3B4B75
:1001AC005A603B4B1B68013B374A82FB031292108F
:1001BC00DB17D31A374A1360354B1B68591E324B69
:1001CC0083FB01239A10CB17D21A13469B001344BE
:1001DC005B00CA1A2F4B5A602F4B1B68013B2A4AF3
:1001EC0082FB03129210DB17D31A2C4A13602A4B92
:1001FC001B68591E244B83FB01239A10CB17D21A70
:10020C0013469B0013445B00CA1A244B5A60244BC0
:10021C001B68013B1C4A82FB03129210DB17D31A9A
:10022C00204A13601E4B1B68591E174B83FB01237E
:10023C009A10CB17D21A13469B0013445B00CA1AB0
:10024C00184B5A60184B1B68013B0F4A82FB031278
:10025C009210DB17D31A154A1360134B1B68591EE7
:10026C00094B83FB01239A10CB17D21A13469B0020
:10027C0013445B00CA1A0D4B5A6000BFBD4680BCCC
:10028C00704700BF6800002067666666200000208B
:10029C006C000020280000203401002030000020D9
:1002AC0038010020380000203001002040000020E0
:1002BC0080B586B006AF724B1B68724A52F82300A9
:1002CC006F4B1B68704A32F813300022194600F04D
:1002DC0022FE6B4B1B68C3F101036A4A52F82300E0
:1002EC00674B1B68C3F10103674A32F813300122D4
:1002FC00194600F010FE654B1B680A2B5FD00A2BC9
:10030C0000F38980082B02D0092B2CD083E05C4BA6
:10031C001B685F4A52F82330DBB2049340230393EB
:10032C002023029310230193082300930423022219
:10033C000121584801F0D8FD022304934FF40053D7
:10034C0003934FF4805302934FF4006301934FF4E3
:10035C00806300934FF400734FF4807280214D48FA
:10036C0001F0C2FD88E0464B1B684B4A52F8233023
:10037C00DBB20493402303932023029310230193B5
:10038C0008230093042302220121424801F0ACFD12
:10039C00032304934FF4005303934FF480530293BD
:1003AC004FF4006301934FF4806300934FF4007398
:1003BC004FF480728021374801F096FD5CE0304BA1
:1003CC001B68364A52F82330DBB204934023039364
:1003DC002023029310230193082300930423022269
:1003EC0001212C4801F080FD042304934FF40053A9
:1003FC0003934FF4805302934FF4006301934FF433
:10040C00806300934FF400734FF480728021214875
:10041C0001F06AFD30E01A4B1B68214A52F8233078
:10042C00DBB2049340230393202302931023019304
:10043C0008230093042302220121164801F054FDE5
:10044C000F4B1B68174A52F82330DBB204934FF45E
:10045C00005303934FF4805302934FF400630193C2
:10046C004FF4806300934FF400734FF4807280213B
:10047C00084801F039FD00BF00BFBD4680BD00BF7C
:10048C004800002000000020080000207000002020
:10049C0030000020000C01403800002040000020FB
:1004AC00200000202800002080B500AF2021024849
:1004BC0000F049FD00BF80BD0008014080B400AFD2
:1004CC00044B1B68C3F10103024A136000BFBD4615
:1004DC0080BC70474800002080B586B006AFFFF79F
:1004EC0043FEFFF7E5FE02F089FC02F01DFE0A4B0D
:1004FC001B68049340230393802302934FF480736F
:10050C000193064B0093022304220821034801F0B7
:10051C00F3FE00BFBD4680BD700000200008014006
:10052C0080B500AF00F0F6F900F02EF800F0B4F84A
:10053C0000F066F80F4801F04BF94FF47A724FF463
:10054C007A710D4802F07AFE4FF4FA7200210B48D2
:10055C0002F074FE0A220021094802F06FFE4FF4EB
:10056C007A724FF47A71074802F068FE02F02AFFA3
:10057C00FCE700BFE4000020B5040008C904000833
:10058C00E50400084D01000880B590B000AF07F1FC
:10059C00180328220021184602F0E8FF3B1D002218
:1005AC001A605A609A60DA601A610223BB610123F7
:1005BC00BB621023FB6200237B6307F11803184610
:1005CC0000F0DAFC0346002B01D000F0E9F80F2311
:1005DC007B600023BB600023FB6000233B61002396
:1005EC007B613B1D0021184600F046FF0346002BA3
:1005FC0001D000F0D5F800BF4037BD4680BD0000EB
:10060C0080B586B000AF07F1080300221A605A606B
:10061C009A60DA603B4600221A605A601D4B4FF01C
:10062C0080421A601B4B41F63F725A60194B0022F4
:10063C009A60184B0922DA60164B00221A61154B8E
:10064C0000229A61134801F073F80346002B01D085
:10065C0000F0A6F84FF48053BB6007F1080319466D
:10066C000C4801F0F1F90346002B01D000F098F88A
:10067C0000233B6000237B603B461946054801F094
:10068C00C9FB0346002B01D000F08AF800BF1837D5
:10069C00BD4680BDE400002080B588B000AF07F1F6
:1006AC00100300221A605A609A60DA602F4B9B6923
:1006BC002E4A43F0100393612C4B9B6903F01003FB
:1006CC00FB60FB68294B9B69284A43F00403936148
:1006DC00264B9B6903F00403BB60BB68234B9B69EF
:1006EC00224A43F008039361204B9B6903F00803F3
:1006FC007B607B6800224FF4F7711D4800F00BFC07
:10070C0000224FF6FF711B4800F005FC4FF46043CC
:10071C003B6100237B610123BB6107F11003194688
:10072C00154800F067FA4FF4F7733B6101237B61C6
:10073C000023BB610223FB6107F1100319460C482F
:10074C0000F058FA4FF6FF733B6101237B610023E5
:10075C00BB610223FB6107F110031946054800F049
:10076C0049FA00BF2037BD4680BD00BF00100240D3
:10077C0000080140000C01400010014080B582B01F
:10078C0000AF78600449054802F066FB02F0FEFDFC
:10079C0000BF0837BD4680BD180000200C000020AB
:1007AC0080B400AF72B600BFFEE7000080B485B025
:1007BC0000AF154B9B69144A43F001039361124B34
:1007CC009B6903F00103BB60BB680F4BDB690E4AEE
:1007DC0043F08053D3610C4BDB6903F080537B6097
:1007EC007B680A4B5B68FB60FB6823F0E063FB6093
:1007FC00FB6843F08063FB60044AFB68536000BFF6
:10080C001437BD4680BC7047001002400000014008
:10081C0080B584B000AF78607B681B68B3F1804F03
:10082C0013D10C4BDB690B4A43F00103D361094B29
:10083C00DB6903F00103FB60FB68002200211C2034
:10084C0000F0A1F91C2000F0BAF900BF1037BD462A
:10085C0080BD00BF0010024080B400AFFEE780B442
:10086C0000AFFEE780B400AFFEE780B400AFFEE758
:10087C0080B400AFFEE780B400AF00BFBD4680BCC3
:10088C00704780B400AF00BFBD4680BC704780B4D9
:10089C0000AF00BFBD4680BC704780B500AF00F014
:1008AC007FF800BF80BD000080B500AF024800F0AB
:1008BC00DBFF00BF80BD00BFE400002080B400AFB0
:1008CC0000BFBD4680BC7047FFF7F8FF0B480C49D2
:1008DC000C4A002302E0D458C4500433C4188C4290
:1008EC00F9D3094A094C002301E013600432A242F7
:1008FC00FBD302F017FEFFF713FE70470000002039
:10090C0088000020CC35000888000020100400204E
:10091C00FEE7000080B500AF084B1B68074A43F0A8
:10092C0010031360032000F023F90F2000F008F8E7
:10093C00FFF73CFF0023184680BD00BF002002409B
:10094C0080B582B000AF7860124B1A68124B1B78DE
:10095C0019464FF47A73B3FBF1F3B2FBF3F3184679
:10096C0000F03BF90346002B01D001230EE07B681D
:10097C000F2B0AD8002279684FF0FF3000F003F9F2
:10098C00064A7B681360002300E0012318460837F1
:10099C00BD4680BD4C0000205400002050000020BB
:1009AC0080B400AF054B1B781A46054B1B681344EB
:1009BC00034A136000BFBD4680BC70475400002042
:1009CC002C01002080B400AF024B1B681846BD46BA
:1009DC0080BC70472C01002080B485B000AF7860DB
:1009EC007B6803F00703FB600C4BDB68BB60BA68E9
:1009FC004FF6FF031340BB60FB681A02BB6813433E
:100A0C0043F0BF6343F40033BB60044ABB68D3605C
:100A1C0000BF1437BD4680BC704700BF00ED00E03E
:100A2C0080B400AF044BDB681B0A03F007031846C5
:100A3C00BD4680BC704700BF00ED00E080B483B0C1
:100A4C0000AF0346FB7197F90730002B0BDBFB79EA
:100A5C0003F01F02064997F907305B09012000FAE1
:100A6C0002F241F8232000BF0C37BD4680BC704712
:100A7C0000E100E080B483B000AF03463960FB7145
:100A8C0097F90730002B0ADB3B68DAB20C4997F96F
:100A9C0007301201D2B20B4483F800230AE03B6802
:100AAC00DAB20849FB7903F00F03043B1201D2B20E
:100ABC000B441A7600BF0C37BD4680BC704700BF94
:100ACC0000E100E000ED00E080B489B000AFF86018
:100ADC00B9607A60FB6803F00703FB61FB69C3F143
:100AEC000703042B28BF0423BB61FB690433062BCB
:100AFC0002D9FB69033B00E000237B614FF0FF321E
:100B0C00BB6902FA03F3DA43BB681A407B699A406B
:100B1C004FF0FF317B6901FA03F3D9437B680B403B
:100B2C00134318462437BD4680BC704780B582B04D
:100B3C0000AF78607B68013BB3F1807F01D3012368
:100B4C000FE00A4A7B68013B53600F214FF0FF30E6
:100B5C00FFF790FF054B00229A60044B07221A60A6
:100B6C00002318460837BD4680BD00BF10E000E0EA
:100B7C0080B582B000AF78607868FFF72DFF00BFBA
:100B8C000837BD4680BD80B586B000AF0346B9605E
:100B9C007A60FB7300237B61FFF742FF78617A6810
:100BAC00B9687869FFF790FF024697F90F30114644
:100BBC001846FFF75FFF00BF1837BD4680BD80B5F4
:100BCC0082B000AF0346FB7197F907301846FFF768
:100BDC0035FF00BF0837BD4680BD80B582B000AF81
:100BEC0078607868FFF7A2FF034618460837BD46C1
:100BFC0080BD000080B48BB000AF786039600023FA
:100C0C007B6200233B6248E101227B6A02FA03F318
:100C1C00FB613B681B68FA691340BB61BA69FB69ED
:100C2C009A4240F037813B685B68A34A93425ED09E
:100C3C00A14A934275D8A14A934258D09F4A9342F5
:100C4C006FD89F4A934252D09D4A934269D89D4A8D
:100C5C0093424CD09B4A934263D89B4A934246D0D2
:100C6C00994A93425DD8122B2AD8122B59D801A23B
:100C7C0052F823F0FB0C0008D50C0008E70C000818
:100C8C00290D00082F0D00082F0D00082F0D00084E
:100C9C002F0D00082F0D00082F0D00082F0D000838
:100CAC002F0D00082F0D00082F0D00082F0D000828
:100CBC002F0D00082F0D0008DD0C0008F10C0008AA
:100CCC00824A934213D02CE03B68DB683B6229E0FC
:100CDC003B68DB6804333B6224E03B68DB68083329
:100CEC003B621FE03B68DB680C333B621AE03B68FD
:100CFC009B68002B02D104233B6213E03B689B688A
:100D0C00012B05D108233B627B68FA691A6109E063
:100D1C0008233B627B68FA695A6103E000233B625B
:100D2C0000E000BFBB69FF2B01D87B6801E07B684A
:100D3C0004337B61BB69FF2B02D87B6A9B0002E00A
:100D4C007B6A083B9B003B617B691A680F213B69FE
:100D5C0001FA03F3DB431A40396A3B6901FA03F3E6
:100D6C001A437B691A603B685B6803F08053002B65
:100D7C0000F09080564B9B69554A43F001039361F8
:100D8C00534B9B6903F00103BB60BB68514A7B6A00
:100D9C009B08023352F82330FB607B6A03F0030399
:100DAC009B000F2202FA03F3DB43FA681340FB604B
:100DBC007B68494A93420DD07B68484A934207D0DE
:100DCC007B68474A934201D1022304E0032302E0EB
:100DDC00012300E000237A6A02F0030292009340A0
:100DEC00FA681343FB603B497B6A9B080233FA6841
:100DFC0041F823203B685B6803F48013002B06D07A
:100E0C00384B9A683749BB6913438B6006E0354B06
:100E1C009A68BB69DB43334913408B603B685B6862
:100E2C0003F40013002B06D02E4BDA682D49BB6956
:100E3C001343CB6006E02B4BDA68BB69DB432949D3
:100E4C001340CB603B685B6803F40033002B06D087
:100E5C00244B5A682349BB6913434B6006E0214B72
:100E6C005A68BB69DB431F4913404B603B685B68A6
:100E7C0003F48033002B06D01A4B1A681949BB694E
:100E8C0013430B6006E0174B1A68BB69DB4315492B
:100E9C0013400B607B6A01337B623B681A687B6A88
:100EAC0022FA03F3002B7FF4AFAE00BF00BF2C3748
:100EBC00BD4680BC704700BF0000321000003110EE
:100ECC000000221000002110000012100000111070
:100EDC00001002400000014000080140000C0140DD
:100EEC00001001400004014080B485B000AF786070
:100EFC000B467B807B689A687B881340002B02D062
:100F0C000123FB7301E00023FB73FB7B18461437B2
:100F1C00BD4680BC704780B483B000AF78600B4690
:100F2C007B8013467B707B78002B03D07A887B68A0
:100F3C001A6103E07B881A047B681A6100BF0C37C6
:100F4C00BD4680BC704780B485B000AF78600B465E
:100F5C007B807B68DB68FB607A88FB6813401A0433
:100F6C00FB68D9437B880B401A437B681A6100BF2E
:100F7C001437BD4680BC704780B586B000AF786032
:100F8C007B68002B01D101236CE27B681B6803F0AA
:100F9C000103002B00F08780924B5B6803F00C037D
:100FAC00042B0CD08F4B5B6803F00C03082B12D175
:100FBC008C4B5B6803F48033B3F5803F0BD1894BCA
:100FCC001B6803F40033002B6CD07B685B68002B30
:100FDC0068D1012346E27B685B68B3F5803F06D19C
:100FEC00804B1B687F4A43F4803313602EE07B6890
:100FFC005B68002B0CD17B4B1B687A4A23F4803343
:10100C001360784B1B68774A23F4802313601DE030
:10101C007B685B68B3F5A02F0CD1724B1B68714ACF
:10102C0043F4802313606F4B1B686E4A43F4803388
:10103C0013600BE06B4B1B686A4A23F4803313601C
:10104C00684B1B68674A23F4802313607B685B68DA
:10105C00002B13D0FFF7B6FC386108E0FFF7B2FCA9
:10106C0002463B69D31A642B01D90323FAE15D4B89
:10107C001B6803F40033002BF0D014E0FFF7A2FC44
:10108C00386108E0FFF79EFC02463B69D31A642BDB
:10109C0001D90323E6E1534B1B6803F40033002B07
:1010AC00F0D100E000BF7B681B6803F00203002B4B
:1010BC0063D04C4B5B6803F00C03002B0BD0494BFB
:1010CC005B6803F00C03082B1CD1464B5B6803F4E4
:1010DC008033002B16D1434B1B6803F00203002B0B
:1010EC0005D07B681B69012B01D00123BAE13D4B74
:1010FC001B6823F0F8027B685B69DB0039491343FA
:10110C000B603AE07B681B69002B20D0364B012228
:10111C001A60FFF757FC386108E0FFF753FC0246F2
:10112C003B69D31A022B01D903239BE12D4B1B687E
:10113C0003F00203002BF0D02A4B1B6823F0F802BB
:10114C007B685B69DB00274913430B6015E0264B7A
:10115C0000221A60FFF736FC386108E0FFF732FC1A
:10116C0002463B69D31A022B01D903237AE11D4BAA
:10117C001B6803F00203002BF0D17B681B6803F0A3
:10118C000803002B3AD07B689B69002B19D0174BB6
:10119C0001221A60FFF716FC386108E0FFF712FC19
:1011AC0002463B69D31A022B01D903235AE10D4B9A
:1011BC005B6A03F00203002BF0D0012000F09AFAD6
:1011CC001CE00A4B00221A60FFF7FCFB38610FE0B1
:1011DC00FFF7F8FB02463B69D31A022B08D903230D
:1011EC0040E100BF00100240000042428004424235
:1011FC009E4B5B6A03F00203002BE9D17B681B68F2
:10120C0003F00403002B00F0A6800023FB75974B22
:10121C00DB6903F08053002B0DD1944BDB69934AAF
:10122C0043F08053D361914BDB6903F08053BB6077
:10123C00BB680123FB758E4B1B6803F48073002B7A
:10124C0018D18B4B1B688A4A43F480731360FFF7E9
:10125C00B9FB386108E0FFF7B5FB02463B69D31ACE
:10126C00642B01D90323FDE0814B1B6803F48073CD
:10127C00002BF0D07B68DB68012B06D17B4B1B6A03
:10128C007A4A43F0010313622DE07B68DB68002B84
:10129C000CD1764B1B6A754A23F001031362734B16
:1012AC001B6A724A23F0040313621CE07B68DB6840
:1012BC00052B0CD16D4B1B6A6C4A43F00403136273
:1012CC006A4B1B6A694A43F0010313620BE0674BDC
:1012DC001B6A664A23F001031362644B1B6A634A60
:1012EC0023F0040313627B68DB68002B15D0FFF737
:1012FC0069FB38610AE0FFF765FB02463B69D31ACC
:10130C0041F28832934201D90323ABE0574B1B6A5D
:10131C0003F00203002BEED014E0FFF753FB38610F
:10132C000AE0FFF74FFB02463B69D31A41F28832C1
:10133C00934201D9032395E04C4B1B6A03F0020343
:10134C00002BEED1FB7D012B05D1484BDB69474AC5
:10135C0023F08053D3617B68DB69002B00F0818024
:10136C00424B5B6803F00C03082B61D07B68DB6994
:10137C00022B46D13F4B00221A60FFF723FB38614A
:10138C0008E0FFF71FFB02463B69D31A022B01D979
:10139C00032367E0354B1B6803F00073002BF0D17F
:1013AC007B681B6AB3F5803F08D1304B5B6823F434
:1013BC0000327B689B682D4913434B602B4B5B6859
:1013CC0023F474127B68196A7B685B6A0B432749A8
:1013DC0013434B60274B01221A60FFF7F3FA386175
:1013EC0008E0FFF7EFFA02463B69D31A022B01D94A
:1013FC00032337E01D4B1B6803F00073002BF0D068
:10140C002FE01C4B00221A60FFF7DCFA386108E071
:10141C00FFF7D8FA02463B69D31A022B01D90323F2
:10142C0020E0124B1B6803F00073002BF0D118E086
:10143C007B68DB69012B01D1012313E00B4B5B684B
:10144C00FB60FB6803F480327B681B6A9A4206D10E
:10145C00FB6803F470127B685B6A9A4201D001232B
:10146C0000E0002318461837BD4680BD001002402E
:10147C00007000406000424280B584B000AF7860DC
:10148C0039607B68002B01D10123D0E06A4B1B68CB
:10149C0003F007033A689A4210D9674B1B6823F094
:1014AC00070265493B6813430B60634B1B6803F0F1
:1014BC0007033A689A4201D00123B8E07B681B68A5
:1014CC0003F00203002B20D07B681B6803F004039D
:1014DC00002B05D0594B5B68584A43F4E0635360CA
:1014EC007B681B6803F00803002B05D0534B5B682B
:1014FC00524A43F460535360504B5B6823F0F00244
:10150C007B689B684D4913434B607B681B6803F0F9
:10151C000103002B40D07B685B68012B07D1474B44
:10152C001B6803F40033002B15D101237FE07B688B
:10153C005B68022B07D1414B1B6803F00073002B37
:10154C0009D1012373E03D4B1B6803F00203002B10
:10155C0001D101236BE0394B5B6823F003027B68FC
:10156C005B68364913434B60FFF72CFAF8600AE0CE
:10157C00FFF728FA0246FB68D31A41F288329342ED
:10158C0001D9032353E02D4B5B6803F00C027B68FD
:10159C005B689B009A42EBD1274B1B6803F0070357
:1015AC003A689A4210D2244B1B6823F00702224956
:1015BC003B6813430B60204B1B6803F007033A682E
:1015CC009A4201D0012332E07B681B6803F00403CC
:1015DC00002B08D0194B5B6823F4E0627B68DB6856
:1015EC00164913434B607B681B6803F00803002B00
:1015FC0009D0124B5B6823F460527B681B69DB00DB
:10160C000E4913434B6000F021F802460B4B5B680C
:10161C001B0903F00F030A49CB5C22FA03F3094AB6
:10162C001360094B1B681846FFF78AF9002318460C
:10163C001037BD4680BD00BF0020024000100240A4
:10164C00A03500084C0000205000002080B487B06A
:10165C0000AF0023FB600023BB6000237B610023F1
:10166C007B6000233B611E4B5B68FB60FB6803F0F7
:10167C000C03042B02D0082B03D027E0194B3B6141
:10168C0027E0FB689B0C03F00F03174AD35C7B60CD
:10169C00FB6803F48033002B10D0114B5B685B0CA0
:1016AC0003F00103114AD35CBB607B680D4A02FB5B
:1016BC0003F2BB68B2FBF3F37B6104E07B680C4A7A
:1016CC0002FB03F37B617B693B6102E0054B3B61F1
:1016DC0000BF3B6918461C37BD4680BC704700BF35
:1016EC000010024000127A00B0350008C035000826
:1016FC0000093D0080B485B000AF78600A4B1B68D0
:10170C000A4AA2FB03235B0A7A6802FB03F3FB6021
:10171C0000BFFB685A1EFA60002BF9D100BF00BF56
:10172C001437BD4680BC70474C000020D34D62106E
:10173C0080B582B000AF78607B68002B01D10123AB
:10174C0041E07B6893F83D30DBB2002B06D17B681F
:10175C00002283F83C207868FFF75AF87B68022255
:10176C0083F83D207B681A687B6804331946104661
:10177C0000F056FA7B68012283F846207B68012230
:10178C0083F83E207B68012283F83F207B6801228E
:10179C0083F840207B68012283F841207B6801227A
:1017AC0083F842207B68012283F843207B68012266
:1017BC0083F844207B68012283F845207B68012252
:1017CC0083F83D20002318460837BD4680BD000035
:1017DC0080B485B000AF78607B6893F83D30DBB2A5
:1017EC00012B01D0012335E07B68022283F83D20D8
:1017FC007B681B68DA687B681B6842F00102DA6060
:10180C007B681B68164A934209D07B681B68B3F14E
:10181C00804F04D07B681B68124A934211D17B68BD
:10182C001B689B6803F00703FB60FB68062B10D05A
:10183C007B681B681A687B681B6842F001021A609F
:10184C0007E07B681B681A687B681B6842F0010222
:10185C001A60002318461437BD4680BC704700BF81
:10186C00002C01400004004080B584B000AF7860CB
:10187C007B681B68DB68FB607B681B681B69BB6053
:10188C00BB6803F00203002B20D0FB6803F00203BB
:10189C00002B1BD07B681B686FF002021A617B68FF
:1018AC0001221A777B681B689B6903F00303002BEA
:1018BC0003D0786800F098F905E0786800F08BF9AF
:1018CC00786800F09AF97B6800221A77BB6803F0FD
:1018DC000403002B20D0FB6803F00403002B1BD067
:1018EC007B681B686FF004021A617B6802221A770E
:1018FC007B681B689B6903F44073002B03D07868EA
:10190C0000F072F905E0786800F065F9786800F08D
:10191C0074F97B6800221A77BB6803F00803002B6C
:10192C0020D0FB6803F00803002B1BD07B681B68DE
:10193C006FF008021A617B6804221A777B681B68B7
:10194C00DB6903F00303002B03D0786800F04CF93B
:10195C0005E0786800F03FF9786800F04EF97B6894
:10196C0000221A77BB6803F01003002B20D0FB6811
:10197C0003F01003002B1BD07B681B686FF0100268
:10198C001A617B6808221A777B681B68DB6903F491
:10199C004073002B03D0786800F026F905E07868D6
:1019AC0000F019F9786800F028F97B6800221A77A2
:1019BC00BB6803F00103002B0CD0FB6803F00103A0
:1019CC00002B07D07B681B686FF001021A617868E6
:1019DC00FEF7D4FEBB6803F08003002B0CD0FB6831
:1019EC0003F08003002B07D07B681B686FF080022C
:1019FC001A61786800F06FFABB6803F04003002BA3
:101A0C000CD0FB6803F04003002B07D07B681B68ED
:101A1C006FF040021A61786800F0F8F8BB6803F0C8
:101A2C002003002B0CD0FB6803F02003002B07D005
:101A3C007B681B686FF020021A61786800F042FA2C
:101A4C0000BF1037BD4680BD80B584B000AF786054
:101A5C0039600023FB737B6893F83C30012B01D178
:101A6C000223B4E07B68012283F83C207B680222CD
:101A7C0083F83D207B681B689B68BB60BB6823F0C8
:101A8C007703BB60BB6823F47F43BB607B681B6838
:101A9C00BA689A603B681B68B3F5005F3ED0B3F53B
:101AAC00005F00F28780B3F5805F00F08680B3F5AD
:101ABC00805F7FD8702B1AD0702B7BD8602B50D0C6
:101ACC00602B77D8502B3CD0502B73D8402B58D050
:101ADC00402B6FD8302B64D0302B6BD8202B60D0A0
:101AEC00202B67D8002B5CD0102B5AD062E07B687F
:101AFC0018683B6899683B685A683B68DB6800F07B
:101B0C006AF97B681B689B68BB60BB6843F0770312
:101B1C00BB607B681B68BA689A604FE07B6818688A
:101B2C003B6899683B685A683B68DB6800F053F97E
:101B3C007B681B689A687B681B6842F480429A60D9
:101B4C003CE07B6818683B6859683B68DB681A4660
:101B5C0000F0CAF87B681B685021184600F021F988
:101B6C002CE07B6818683B6859683B68DB681A4650
:101B7C0000F0E8F87B681B686021184600F011F94A
:101B8C001CE07B6818683B6859683B68DB681A4640
:101B9C0000F0AAF87B681B684021184600F001F998
:101BAC000CE07B681A683B681B681946104600F00D
:101BBC00F8F803E00123FB7300E000BF7B6801220F
:101BCC0083F83D207B68002283F83C20FB7B184681
:101BDC001037BD4680BD80B483B000AF786000BFC5
:101BEC000C37BD4680BC704780B483B000AF7860C2
:101BFC0000BF0C37BD4680BC704780B483B000AFCB
:101C0C00786000BF0C37BD4680BC704780B483B091
:101C1C0000AF786000BF0C37BD4680BC7047000039
:101C2C0080B485B000AF786039607B681B68FB605E
:101C3C007B682B4A934207D07B68B3F1804F03D06B
:101C4C007B68284A934208D1FB6823F07003FB6041
:101C5C003B685B68FA681343FB607B68204A9342DD
:101C6C0007D07B68B3F1804F03D07B681D4A934249
:101C7C0008D1FB6823F44073FB603B68DB68FA68AF
:101C8C001343FB60FB6823F080023B685B691343E2
:101C9C00FB607B68FA681A603B689A687B68DA625A
:101CAC003B681A687B689A627B680D4A934203D141
:101CBC003B681A697B681A637B6801225A617B68EE
:101CCC001B6903F00103002B05D07B681B6923F013
:101CDC0001027B681A6100BF1437BD4680BC704797
:101CEC00002C01400004004080B487B000AFF860C5
:101CFC00B9607A60FB681B6A7B61FB681B6A23F026
:101D0C000102FB681A62FB689B693B613B6923F02B
:101D1C00F0033B617B681B013A6913433B617B69B0
:101D2C0023F00A037B617A69BB6813437B61FB6810
:101D3C003A699A61FB687A691A6200BF1C37BD4622
:101D4C0080BC704780B487B000AFF860B9607A602F
:101D5C00FB681B6A7B61FB681B6A23F01002FB6843
:101D6C001A62FB689B693B613B6923F470433B61DE
:101D7C007B681B033A6913433B617B6923F0A00327
:101D8C007B61BB681B017A6913437B61FB683A6911
:101D9C009A61FB687A691A6200BF1C37BD4680BC29
:101DAC00704780B485B000AF786039607B689B6801
:101DBC00FB60FB6823F07003FB603A68FB6813431D
:101DCC0043F00703FB607B68FA689A6000BF143726
:101DDC00BD4680BC704780B487B000AFF860B96076
:101DEC007A603B60FB689B687B617B6923F47F4373
:101DFC007B613B681A027B681A43BB6813437A69A0
:101E0C0013437B61FB687A699A6000BF1C37BD463F
:101E1C0080BC704780B485B000AF786039607B6857
:101E2C0093F83C30012B01D1022341E07B68012265
:101E3C0083F83C207B68022283F83D207B681B687A
:101E4C005B68FB607B681B689B68BB60FB6823F06E
:101E5C007003FB603B681B68FA681343FB607B688C
:101E6C001B68FA685A607B681B68144A934209D055
:101E7C007B681B68B3F1804F04D07B681B68104AE9
:101E8C0093420CD1BB6823F08003BB603B685B685A
:101E9C00BA681343BB607B681B68BA689A607B683E
:101EAC00012283F83D207B68002283F83C2000232C
:101EBC0018461437BD4680BC704700BF002C01404B
:101ECC000004004080B483B000AF786000BF0C37D2
:101EDC00BD4680BC704780B483B000AF786000BF53
:101EEC000C37BD4680BC704780B584B000AFF8603D
:101EFC00084611461A4603467B810B463B81134626
:101F0C00FB8097F82830092B00F2C68101A252F809
:101F1C0023F000BF491F00089F1F0008F51F000891
:101F2C004B200008A1200008F72000084D210008D4
:101F3C00A3210008F92100084F2200087B89002208
:101F4C001946F868FEF7E7FF3B8900221946F86846
:101F5C00FEF7E1FFFB8800221946F868FEF7DBFF6D
:101F6C003B8B00221946F868FEF7D5FFBB8B00228D
:101F7C001946F868FEF7CFFF3B8C00221946F8682B
:101F8C00FEF7C9FFBB8C01221946F868FEF7C3FFA8
:101F9C00ADE17B8901221946F868FEF7BCFF3B894D
:101FAC0000221946F868FEF7B6FFFB880022194696
:101FBC00F868FEF7B0FF3B8B01221946F868FEF774
:101FCC00AAFFBB8B01221946F868FEF7A4FF3B8CD5
:101FDC0001221946F868FEF79EFFBB8C01221946B8
:101FEC00F868FEF798FF82E17B8900221946F868B1
:101FFC00FEF791FF3B8900221946F868FEF78BFF2C
:10200C00FB8801221946F868FEF785FF3B8B0022FE
:10201C001946F868FEF77FFFBB8B00221946F8685B
:10202C00FEF779FF3B8C01221946F868FEF773FF27
:10203C00BB8C00221946F868FEF76DFF57E17B89CF
:10204C0000221946F868FEF766FF3B890022194604
:10205C00F868FEF760FFFB8800221946F868FEF767
:10206C005AFF3B8B00221946F868FEF754FFBB8BD6
:10207C0001221946F868FEF74EFF3B8C01221946E7
:10208C00F868FEF748FFBB8C00221946F868FEF78B
:10209C0042FF2CE17B8901221946F868FEF73BFFD1
:1020AC003B8900221946F868FEF735FFFB880022B1
:1020BC001946F868FEF72FFF3B8B01221946F8688A
:1020CC00FEF729FFBB8B01221946F868FEF723FFA8
:1020DC003B8C00221946F868FEF71DFFBB8C0022D2
:1020EC001946F868FEF717FF01E17B8900221946B3
:1020FC00F868FEF710FF3B8901221946F868FEF7D5
:10210C000AFFFB8800221946F868FEF704FF3B8B98
:10211C0000221946F868FEF7FEFEBB8B0122194619
:10212C00F868FEF7F8FE3B8C00221946F868FEF7BB
:10213C00F2FEBB8C00221946F868FEF7ECFED6E0E6
:10214C007B8900221946F868FEF7E5FE3B890122DF
:10215C001946F868FEF7DFFEFB8800221946F8687E
:10216C00FEF7D9FE3B8B00221946F868FEF7D3FE2A
:10217C00BB8B00221946F868FEF7CDFE3B8C002283
:10218C001946F868FEF7C7FEBB8C00221946F868A2
:10219C00FEF7C1FEABE07B8900221946F868FEF71A
:1021AC00BAFE3B8900221946F868FEF7B4FEFB889C
:1021BC0000221946F868FEF7AEFE3B8B0122194649
:1021CC00F868FEF7A8FEBB8B01221946F868FEF7EB
:1021DC00A2FE3B8C01221946F868FEF79CFEBB8CD4
:1021EC0001221946F868FEF796FE80E07B890022F2
:1021FC001946F868FEF78FFE3B8900221946F868ED
:10220C00FEF789FEFB8800221946F868FEF783FE6C
:10221C003B8B00221946F868FEF77DFEBB8B002233
:10222C001946F868FEF777FE3B8C00221946F868D1
:10223C00FEF771FEBB8C00221946F868FEF76BFEA8
:10224C0055E07B8900221946F868FEF764FE3B894D
:10225C0000221946F868FEF75EFEFB88002219463C
:10226C00F868FEF758FE3B8B00221946F868FEF71B
:10227C0052FEBB8B01221946F868FEF74CFE3B8CD4
:10228C0000221946F868FEF746FEBB8C0022194660
:10229C00F868FEF740FE2AE07B8901221946F868AF
:1022AC00FEF739FE3B8901221946F868FEF733FE2A
:1022BC00FB8801221946F868FEF72DFE3B8B0122A4
:1022CC001946F868FEF727FEBB8B01221946F86801
:1022DC00FEF721FE3B8C01221946F868FEF71BFE27
:1022EC00BB8C01221946F868FEF715FE00BF00BF33
:1022FC001037BD4680BD00BF80B586B002AFF86018
:10230C00084611461A4603467B810B463B81134611
:10231C00FB80BB6A013B0F2B00F20D8101A252F82E
:10232C0023F000BFF9230008712300089323000851
:10233C00B5230008D72300084324000843250008D0
:10234C0065240008AF240008F92400084325000880
:10235C00712300089323000843250008B5230008C7
:10236C00D7230008FB883A89798902200090F86805
:10237C0000F00AF9BB8C3A8CB98B00200090B8693C
:10238C0000F002F9FCE0FB883A8979890120009081
:10239C00F86800F0F9F8BB8C3A8CB98B00200090EF
:1023AC00B86900F0F1F8EBE0FB883A8979890020F4
:1023BC000090F86800F0E8F8BB8C3A8CB98B0220DE
:1023CC000090B86900F0E0F8DAE0FB883A89798986
:1023DC0000200090F86800F0D7F8BB8C3A8CB98BD1
:1023EC0001200090B86900F0CFF8C9E07B89012288
:1023FC001946F868FEF78FFD3B8901221946F868EB
:10240C00FEF789FDFB8801221946F868FEF783FD6B
:10241C00BB8B01221946B869FEF77DFD3B8C01226E
:10242C001946B869FEF777FDBB8C01221946B869CD
:10243C00FEF771FDA4E0FB883A89798900200090B1
:10244C00F86800F0A1F8BB8C3A8CB98B0020009096
:10245C00B86900F099F893E03B8901221946F868B5
:10246C00FEF759FDFB8801221946F868FEF753FD6B
:10247C003B8C01221946B869FEF74DFDBB8C01223D
:10248C001946B869FEF747FD7B8900221946F868A2
:10249C00FEF741FDBB8B00221946B869FEF73BFDE8
:1024AC006EE07B8901221946F868FEF734FDFB8843
:1024BC0001221946F868FEF72EFDBB8B0122194646
:1024CC00B869FEF728FDBB8C01221946B869FEF7E6
:1024DC0022FD3B8900221946F868FEF71CFD3B8C57
:1024EC0000221946B869FEF716FD49E07B890122E6
:1024FC001946F868FEF70FFD3B8901221946F8686A
:10250C00FEF709FDBB8B01221946B869FEF703FDE6
:10251C003B8C01221946B869FEF7FDFCFB880022B2
:10252C001946F868FEF7F7FCBB8C00221946B8690F
:10253C00FEF7F1FC24E07B8901221946F868FEF7CE
:10254C00EAFC3B8901221946F868FEF7E4FCFB889B
:10255C0001221946F868FEF7DEFCBB8B01221946F6
:10256C00B869FEF7D8FC3B8C01221946B869FEF716
:10257C00D2FCBB8C01221946B869FEF7CCFC00BF1B
:10258C0000BF1037BD4680BD80B584B000AFF86089
:10259C00084611461A4603467B810B463B8113467F
:1025AC00FB803B7E022B2CD0022B3DDC002B02D07F
:1025BC00012B13D038E07B8900221946F868FEF70E
:1025CC00AAFC3B8901221946F868FEF7A4FCFB889B
:1025DC0001221946F868FEF79EFC26E07B89012251
:1025EC001946F868FEF797FC3B8900221946F868F3
:1025FC00FEF791FCFB8801221946F868FEF78BFC6C
:10260C0013E07B8901221946F868FEF784FC3B89AC
:10261C0001221946F868FEF77EFCFB880022194659
:10262C00F868FEF778FC00E000BF00BF1037BD462D
:10263C0080BD000080B500AF2C4B1B68002B0AD06E
:10264C002B4B1B682B4A1360294B1B682A4A1360BF
:10265C00264B00221A60294B1A68294B1B681A4416
:10266C00284B1B689A4214BF01230023DBB21A4685
:10267C00254B1A701F4B1B68002B03DD1E4B1B6870
:10268C00002B0DDC194B01221A601D4B1B68194ADB
:10269C0013601C4B1B68184A13601C4B02221A60F7
:1026AC00002000F00DFD0346002B0BD00F4B012238
:1026BC001A60164B08221A60154B00221A70154B23
:1026CC0001221A60012000F0FBFC0346002B0BD00A
:1026DC00064B01221A600D4B0C221A600C4B002287
:1026EC005A700C4B01221A6000BF80BDA400002060
:1026FC0064000020680000206C0000205C000020BA
:10270C0058000020600000203C01002070000020D8
:10271C00AC000020A800002080B500AF184B1B684F
:10272C00002B06DC174B1B68154A1360164B032253
:10273C001A60002000F0C4FC0346002B0BD0124B97
:10274C0008221A60114B01221A60114B00221A70D8
:10275C00104B01221A60012000F0B2FC0346002B42
:10276C000BD00A4B01221A60074B0C221A60084B43
:10277C0000225A70074B01221A6000BF80BD00BFB7
:10278C00680000205C00002070000020A4000020E5
:10279C00AC000020A800002080B500AF224B1B78B5
:1027AC00012B0BD1214B1B68002B16DC204B1B681B
:1027BC001E4A13601F4B06221A600EE01E4B1B684C
:1027CC00002B0ADC1A4B1B68184A13601B4B1B6846
:1027DC00194A1360174B04221A60002000F070FC99
:1027EC000346002B0BD0134B08221A60144B01220A
:1027FC001A60144B00221A70134B01221A6001202C
:10280C0000F05EFC0346002B0BD00D4B01221A602E
:10281C00084B0D221A600B4B00225A700A4B0122F6
:10282C001A6000BF80BD00BF3C0100206800002082
:10283C0060000020700000206C0000205800002078
:10284C00A4000020AC000020A800002080B500AF40
:10285C00184B1B68002B06DC174B1B68154A1360C2
:10286C00164B04221A60002000F02AFC0346002BB1
:10287C000BD0124B08221A60114B01221A60114B1B
:10288C0000221A70104B01221A60012000F018FC73
:10289C000346002B0BD00A4B01221A60074B0E2269
:1028AC001A60084B00225A70074B01221A6000BFB5
:1028BC0080BD00BF6C00002058000020700000207C
:1028CC00A4000020AC000020A800002080B500AFC0
:1028DC00184B1B68002B06DC174B1B68154A136042
:1028EC00164B05221A60002000F0EAFB0346002B71
:1028FC000BD0124B08221A60114B01221A60114B9B
:10290C0000221A70104B01221A60012000F0D8FB33
:10291C000346002B0BD0094B0F221A60084B0122E7
:10292C001A60084B00225A70074B01221A6000BF34
:10293C0080BD00BF6C0000205C00002070000020F7
:10294C00A4000020AC000020A800002080B500AF3F
:10295C001A4B1B68002B0ADC194B1B68174A1360B7
:10296C00184B1B68184A1360184B02221A6000207F
:10297C0000F0A6FB0346002B0BD0144B08221A6068
:10298C00134B01221A60134B00221A70124B0122B6
:10299C001A60012000F094FB0346002B0BD00B4B6C
:1029AC0010221A600A4B01221A600A4B00225A703C
:1029BC00094B01221A6000BF80BD00BF6C000020D3
:1029CC0060000020580000206800002070000020EB
:1029DC00A4000020AC000020A800002080B500AFAF
:1029EC00012000F06DFB0346002B08D00C4B0D2290
:1029FC001A600C4B01221A600B4B00225A700020FB
:102A0C0000F05EFB0346002B08D0054B01221A6038
:102A1C00044B01221A60044B00221A7000BF80BDC7
:102A2C0070000020A4000020AC00002080B500AF96
:102A3C00012000F045FB0346002B08D00C4B0E2266
:102A4C001A600C4B01221A600B4B00225A700020AA
:102A5C0000F036FB0346002B08D0054B01221A6010
:102A6C00044B01221A60044B00221A7000BF80BD77
:102A7C0070000020A4000020AC00002080B500AF46
:102A8C00012000F01DFB0346002B08D00C4B0F223D
:102A9C001A600C4B01221A600B4B00225A7000205A
:102AAC0000F00EFB0346002B08D0054B01221A60E8
:102ABC00044B01221A60044B00221A7000BF80BD27
:102ACC0070000020A4000020AC00002080B500AFF6
:102ADC00012000F0F5FA0346002B08D00C4B102215
:102AEC001A600C4B01221A600B4B00225A7000200A
:102AFC0000F0E6FA0346002B08D0054B01221A60C1
:102B0C00044B01221A60044B00221A7000BF80BDD6
:102B1C0070000020A4000020AC00002080B500AFA5
:102B2C00012000F0CDFA0346002B08D00C4B0C22F0
:102B3C001A600C4B01221A600B4B00225A700020B9
:102B4C0000F0BEFA0346002B08D0054B01221A6098
:102B5C00044B01221A60044B00221A7000BF80BD86
:102B6C0070000020A4000020AC00002080B500AF55
:102B7C00394B1A68394B1B689A4203DA374B1B687E
:102B8C00354A1360012000F0B5FA0346002B19D02A
:102B9C00334B01221A60334B1A68334B1B681344B6
:102BAC0003F109022C4B1B689A4205DA2A4B1B686D
:102BBC000A3B294A136002E0274B62221A602B4B16
:102BCC0000225A70012000F07BFA0346002B19D02A
:102BDC00214B1B68632B05DC1F4B1B6801331E4A02
:102BEC00136009E01E4B01221A601E4B1A681E4B23
:102BFC001B681344184A1360194B01221A601C4BB2
:102C0C0000225A70022000F05BFA0346002B09D018
:102C1C00114B1B68114A1360114B01221A60144BA3
:102C2C0000229A70002000F04BFA0346002B10D0C3
:102C3C000A4B1B68084A13600A4B1B680D4A136049
:102C4C000D4B0A221A60064B01221A60084B002217
:102C5C001A7000BF80BD00BF34010020600000204E
:102C6C00A4000020580000205C000020B0000020D0
:102C7C00AC000020300100207000002080B500AFB7
:102C8C00244B1B68002B02DC224B01221A60012012
:102C9C0000F016FA0346002B17D01E4B1A681E4B79
:102CAC001B689A4205DA1B4B1B680133194A1360E7
:102CBC0005E01A4B01221A60164B00221A60174BC2
:102CCC0001221A60164B00225A70022000F0F8F90B
:102CDC000346002B09D00F4B1B68124A13600F4B95
:102CEC0001221A600E4B00229A70002000F0E8F9C5
:102CFC000346002B0CD00B4B1B68064A13600A4B87
:102D0C0001221A60054B01221A60054B00221A7031
:102D1C0000BF80BD3801002058000020A400002016
:102D2C00AC0000205C0000207000002080B500AFDB
:102D3C002A4B1A682A4B1B689A4203DA284B1B68E9
:102D4C00264A1360012000F0BBF90346002B1BD070
:102D5C00224B1A68224B1B681A44224B1B689A425E
:102D6C0005DA1E4B1B6801331C4A136006E01E4B30
:102D7C0001221A601A4B1B68184A13601A4B012265
:102D8C001A601A4B00225A70022000F099F903467F
:102D9C00002B09D0114B1B68154A1360124B0122F2
:102DAC001A60124B00229A70002000F089F9034639
:102DBC00002B10D00E4B1B68084A1360084B1B6885
:102DCC000C4A13600C4B09221A60074B01221A6043
:102DDC00064B00221A7000BF80BD00BF30010020DE
:102DEC005C00002060000020A4000020AC0000204B
:102DFC0058000020380100207000002080B500AF82
:102E0C00144B1B68013B052B20D801A252F823F070
:102E1C00352E00083B2E0008412E00084D2E0008D0
:102E2C00532E0008472E0008FFF704FC0FE0FFF7B5
:102E3C0073FC0CE0FFF7B0FC09E0FFF707FD06E0C0
:102E4C00FFF744FD03E0FFF781FD00E000BF00BF8A
:102E5C0080BD00BF7000002080B584B000AF7860EA
:102E6C0039600023FB600CE18A4AFB681344197833
:102E7C00894AFB6813440A461A70884AFB68134453
:102E8C001978844AFB6813440A461A70FB689B0045
:102E9C007A6813441868FB685B003A6813441B8813
:102EAC001946FEF721F8034619467C4AFB68134481
:102EBC000A461A70784AFB6813441A787549FB68FD
:102ECC000B441B789A4240F0D980724AFB68134439
:102EDC001A787249FB680B441B789A4240F0CE80FA
:102EEC006F4AFB6813441A786B49FB680B441B78D8
:102EFC009A4254D0684AFB6813441978684AFB68B4
:102F0C0013440A461A70664AFB6813441B78002B5C
:102F1C003AD1644AFB68134401221A70624AFB6876
:102F2C00002142F82310614AFB68002142F823106B
:102F3C005F4AFB6813441B78012B1AD15D4AFB686E
:102F4C0032F81330002B14D05B4AFB681344012277
:102F5C001A70574AFB68134400221A70554AFB68D2
:102F6C00002122F813104F4AFB68134400221A70F8
:102F7C0084E04F4AFB68134401221A704D4AFB68E7
:102F8C00042122F8131079E0474AFB68002142F82B
:102F9C002310464AFB68002142F823106EE0404A99
:102FAC00FB6813441B78002B38D13F4AFB6852F85E
:102FBC0023305A1C3C49FB6841F823203A4AFB68F1
:102FCC0052F82330632B59DD3C4AFB6852F823300E
:102FDC00B3F5967F11DA394AFB6852F823305A1C44
:102FEC003649FB6841F82320304AFB6852F82330FD
:102FFC005A1C2E49FB6841F823202C4AFB6852F8D6
:10300C002330132B3ADD274AFB68134401221A7034
:10301C00264AFB68002142F823102FE0224AFB6865
:10302C00002142F82310214AFB68002142F82310AA
:10303C00224AFB68002142F823101D4AFB68134406
:10304C001B78012B1AD11B4AFB6832F81330002B6A
:10305C0014D0184AFB6832F81330013B99B2154A68
:10306C00FB6822F81310134AFB6832F81330002B5C
:10307C0004D10F4AFB68134400221A70FB68013319
:10308C00FB60FB68022B7FF7EFAE00BF00BF103771
:10309C00BD4680BD780000207C000020740000201C
:1030AC0080000020AC000020C0000020CC000020DC
:1030BC00E0000020D8000020B0000020B400002068
:1030CC0080B483B000AF78607B68022B01D90023F9
:1030DC0008E0074A7B6813441B78012B01D10123BC
:1030EC0000E0002318460C37BD4680BC704700BF7B
:1030FC00AC00002080B483B000AF78607B68022BFA
:10310C0001D9002308E0074A7B6813441B78012B84
:10311C0001D1012300E0002318460C37BD4680BCCA
:10312C00704700BFB000002080B500AF394B1B6862
:10313C00072B38DD374B1B68102B34DC364B1B68E8
:10314C00002B0CD042F21071042000F0CDF9334B5F
:10315C001B68002B27D1304B00221A6023E0304B28
:10316C001B69012B1FD12B4B1B68082B04D12D4B3A
:10317C001B682D4A136010E0264B1B680A2B04D1E8
:10318C002A4B1B682A4A136007E0224B1B68012B51
:10319C0003D1284B1B68284A13601E4B01221A606E
:1031AC001D4B01221A601B4B1B68083B082B2DD8AA
:1031BC0001A252F823F000BFE9310008EF310008FA
:1031CC00F531000819320008FB3100080132000803
:1031DC0013320008073200080D320008FFF7C6FC56
:1031EC0015E0FFF74BFD12E0FFF7A0FD0FE0FFF736
:1031FC00F5FB0CE0FFF71AFC09E0FFF767FC06E0B3
:10320C00FFF78CFC03E0FFF739FC00E000BF00BFC8
:10321C0080BD00BF70000020A4000020A80000208A
:10322C00C003002060000020340100205800002062
:10323C00300100205C0000203801002090B488B0E0
:10324C0000AFF860B9607A604D4B1B78FB614D4B59
:10325C001B781A46BB68B3FBF2F3BB60484B1B7878
:10326C00272B00F288800023BB6131E0464ABB6902
:10327C001B01134404331B681A46BB6893420AD9DA
:10328C00414ABB691B01134404331B681A46BB68D3
:10329C009B1ABB6019E03C4ABB691B011344043305
:1032AC001A68BB689A420DD1BB680133BB60364AC1
:1032BC00BB691B01134404331B681A46BB689B1A79
:1032CC00BB6002E0BB69FB6108E0BB690133BB6119
:1032DC002B4B1B781A46BB699342C7DB284B1B78D8
:1032EC007B610FE07B69013B27497A69120111442C
:1032FC00254A1B0113440C460FCB84E80F007B6955
:10330C00013B7B617A69FB699A42EBDC1C4B1B78B5
:10331C000133DAB21A4B1A701B4AFB691B011344B6
:10332C00FA681A60BA681849FB691B010B4404332C
:10333C001A60154AFB691B01134408337A681A603A
:10334C000F4B1B78013BFA699A4214DAFB69013383
:10335C000D4A1B011344043319680B4AFB691B010A
:10336C00134404331A68FB6901338A1A06491B019A
:10337C000B4404331A6000BF2037BD4690BC704725
:10338C00E3000020830000204001002080B400AF47
:10339C000B4B5B68002B04DD094B5B68013B084A57
:1033AC005360074B5B68002B05DC054B1B7B013323
:1033BC00DAB2034B1A7300BFBD4680BC704700BF26
:1033CC004001002090B585B000AF114B1B7B002B4A
:1033DC0019D00F4B1B7B013BDAB20D4B1A730C4B04
:1033EC001B6898470A4B3C460FCB84E80F00002023
:1033FC0000F010F8BB68002B05D03B68B968BA68C0
:10340C001846FFF71BFF00BF1437BD4690BD00BF29
:10341C004001002090B484B000AF7860304B1B7832
:10342C001A467B68934256D22D4B1B78013B1A46A9
:10343C007B68934214D27B6801332A4A1B011344E4
:10344C0004331968274A7B681B01134404331A6838
:10345C007B6801330A4423491B010B4404331A6073
:10346C007B68FB600FE0FB6801331E49FA681201B0
:10347C0011441C4A1B0113440C460FCB84E80F006B
:10348C00FB680133FB60164B1B78013BFA689A42D0
:10349C00E9DB134B1B78013B124A1B011344043329
:1034AC0000221A600E4B1B78013B0E4A1B01134481
:1034BC00083300221A600A4B1B78013B094A1B0196
:1034CC0013440C3300221A70054B1B78013BDAB203
:1034DC00034B1A7000E000BF1037BD4690BC70471C
:1034EC00E30000204001002080B483B000AF78607E
:1034FC003960094B1B683A6892FBF3F207497B6809
:10350C0041F82320064A7B68002142F8231000BFB3
:10351C000C37BD4680BC704784000020E8030020B7
:10352C00C003002070B500260C4D0D4C641BA4107C
:10353C00A64209D100F022F800260A4D0A4C641B61
:10354C00A410A64205D170BD55F8043B984701362E
:10355C00EEE755F8043B98470136F2E7C43500080E
:10356C00C4350008C4350008C835000803460244B9
:10357C00934200D1704703F8011BF9E7F8B500BF7F
:10358C00F8BC08BC9E467047F8B500BFF8BC08BC38
:04359C009E46704790
:1035A00000000000000000000102030406070809F3
:1035B00002030405060708090A0B0C0D0E0F101074
:0435C0000102000004
:0435C40031010008C9
:0435C8000D010008E9
:1035CC00000C0140000C0140004000800010014044
:1035DC00001001400010014000200040008000005D
:1035EC0000000000010000000000000001000000CD
:1035FC0000000000010000000000000001000000BD
:10360C0000000000010000000100000000127A0020
:10361C001000000001000000030000000200000088
:10362C00050000000300000005000000050000007C
:10363C00010000000100000001000000010000007A
:08364C000100000A0A00000061
:04000005080008D512
:00000001FF
