:020000040800F2
:100000000028002029050008B9040008BF040008E2
:10001000C5040008CB040008D1040008000000005B
:10002000000000000000000000000000D7040008ED
:10003000E304000800000000EF040008FB040008CF
:1000400071050008710500087105000871050008B8
:1000500071050008710500087105000871050008A8
:100060007105000871050008710500087105000898
:100070007105000871050008710500087105000888
:100080007105000871050008710500087105000878
:100090007105000871050008710500087105000868
:1000A0007105000871050008710500087105000858
:1000B000090500087105000800000000710500082E
:1000C0007105000800000000000000007105000834
:1000D0000000000071050008710500080000000024
:1000E0007105000871050008710500080000000096
:1000F0000000000000000000000000000000000000
:0C01000000000000000000005FF808F1A3
:10010C0010B5054C237833B9044B13B10448AFF345
:10011C0000800123237010BD44000020000000006B
:10012C00842B000808B5034B1BB103490348AFF3FC
:10013C00008008BD0000000048000020842B00084F
:10014C0080B500AF0A224FF4FA71002002F0A4FC33
:10015C0000BF80BD80B400AF00BFBD4680BC7047FF
:10016C0080B586B006AF00F0FFF900F037F800F06C
:10017C00BDF800F06FF8154801F054F9FFF7E0FFF7
:10018C00FFF7E8FF00224FF48041114800F0EDFC2E
:10019C0000224FF400410E4800F0E7FC02F04CFB4B
:1001AC0002F02CFC0B4B1B6804934023039380231D
:1001BC0002934FF480730193074B009302230422A4
:1001CC000821054801F0C2FEDCE700BF7C000020DE
:1001DC00000C0140380000200008014080B590B0B0
:1001EC0000AF07F1180328220021184602F0BCFCCE
:1001FC003B1D00221A605A609A60DA601A61022371
:10020C00BB610123BB621023FB6200237B6307F1FC
:10021C001803184600F0DAFC0346002B01D000F05E
:10022C00E9F80F237B600023BB600023FB600023F5
:10023C003B6100237B613B1D0021184600F046FF0B
:10024C000346002B01D000F0D5F800BF4037BD4667
:10025C0080BD000080B586B000AF07F10803002216
:10026C001A605A609A60DA603B4600221A605A6043
:10027C001D4B4FF080421A601B4B41F63F725A6087
:10028C00194B00229A60184B0922DA60164B002297
:10029C001A61154B00229A61134801F073F803465A
:1002AC00002B01D000F0A6F84FF48053BB6007F18F
:1002BC00080319460C4801F0F1F90346002B01D054
:1002CC0000F098F800233B6000237B603B46194606
:1002DC00054801F0C9FB0346002B01D000F08AF859
:1002EC0000BF1837BD4680BD7C00002080B588B0AB
:1002FC0000AF07F1100300221A605A609A60DA60AE
:10030C002F4B9B692E4A43F0100393612C4B9B6936
:10031C0003F01003FB60FB68294B9B69284A43F0F0
:10032C0004039361264B9B6903F00403BB60BB6819
:10033C00234B9B69224A43F008039361204B9B6932
:10034C0003F008037B607B6800224FF4F7711D48B3
:10035C0000F00BFC00224FF6FF711B4800F005FC6F
:10036C004FF460433B6100237B610123BB6107F1C8
:10037C0010031946154800F067FA4FF4F7733B6108
:10038C0001237B610023BB610223FB6107F1100396
:10039C0019460C4800F058FA4FF6FF733B610123E5
:1003AC007B610023BB610223FB6107F1100319463B
:1003BC00054800F049FA00BF2037BD4680BD00BF9C
:1003CC000010024000080140000C014000100140E8
:1003DC0080B582B000AF786002F072FB034904482C
:1003EC0002F058FA00BF0837BD4680BD0C00002053
:1003FC000000002080B400AF72B600BFFEE7000022
:10040C0080B485B000AF154B9B69144A43F00103CF
:10041C009361124B9B6903F00103BB60BB680F4BEC
:10042C00DB690E4A43F08053D3610C4BDB6903F05C
:10043C0080537B607B680A4B5B68FB60FB6823F036
:10044C00E063FB60FB6843F08063FB60044AFB687D
:10045C00536000BF1437BD4680BC7047001002408B
:10046C000000014080B584B000AF78607B681B68E9
:10047C00B3F1804F13D10C4BDB690B4A43F00103F2
:10048C00D361094BDB6903F00103FB60FB680022BD
:10049C0000211C2000F0A1F91C2000F0BAF900BFCB
:1004AC001037BD4680BD00BF0010024080B400AFC5
:1004BC00FEE780B400AFFEE780B400AFFEE780B487
:1004CC0000AFFEE780B400AFFEE780B400AF00BF22
:1004DC00BD4680BC704780B400AF00BFBD4680BC39
:1004EC00704780B400AF00BFBD4680BC704780B57C
:1004FC0000AF00F07FF800BF80BD000080B500AFFA
:10050C00024800F0DBFF00BF80BD00BF7C00002074
:10051C0080B400AF00BFBD4680BC7047FFF7F8FF4A
:10052C000B480C490C4A002302E0D458C450043345
:10053C00C4188C42F9D3094A094C002301E013601A
:10054C000432A242FBD302F0EBFAFFF709FE70472C
:10055C000000002044000020C82B000844000020AC
:10056C0024010020FEE7000080B500AF084B1B689B
:10057C00074A43F010031360032000F023F90F2007
:10058C0000F008F8FFF73CFF0023184680BD00BFC1
:10059C000020024080B582B000AF7860124B1A6820
:1005AC00124B1B7819464FF47A73B3FBF1F3B2FB81
:1005BC00F3F3184600F03BF90346002B01D001235E
:1005CC000EE07B680F2B0AD8002279684FF0FF30C1
:1005DC0000F003F9064A7B681360002300E0012356
:1005EC0018460837BD4680BD140000201C000020B2
:1005FC001800002080B400AF054B1B781A46054B41
:10060C001B681344034A136000BFBD4680BC70478F
:10061C001C000020C400002080B400AF024B1B68FB
:10062C001846BD4680BC7047C400002080B485B01D
:10063C0000AF78607B6803F00703FB600C4BDB6852
:10064C00BB60BA684FF6FF031340BB60FB681A022D
:10065C00BB68134343F0BF6343F40033BB60044AED
:10066C00BB68D36000BF1437BD4680BC704700BF69
:10067C0000ED00E080B400AF044BDB681B0A03F014
:10068C0007031846BD4680BC704700BF00ED00E074
:10069C0080B483B000AF0346FB7197F90730002B91
:1006AC000BDBFB7903F01F02064997F907305B0956
:1006BC00012000FA02F241F8232000BF0C37BD469E
:1006CC0080BC704700E100E080B483B000AF03460B
:1006DC003960FB7197F90730002B0ADB3B68DAB203
:1006EC000C4997F907301201D2B20B4483F800235E
:1006FC000AE03B68DAB20849FB7903F00F03043BCC
:10070C001201D2B20B441A7600BF0C37BD4680BC26
:10071C00704700BF00E100E000ED00E080B489B05C
:10072C0000AFF860B9607A60FB6803F00703FB6107
:10073C00FB69C3F10703042B28BF0423BB61FB69CE
:10074C000433062B02D9FB69033B00E000237B61D9
:10075C004FF0FF32BB6902FA03F3DA43BB681A406D
:10076C007B699A404FF0FF317B6901FA03F3D9435F
:10077C007B680B40134318462437BD4680BC70473A
:10078C0080B582B000AF78607B68013BB3F1807FAD
:10079C0001D301230FE00A4A7B68013B53600F2110
:1007AC004FF0FF30FFF790FF054B00229A60044B8F
:1007BC0007221A60002318460837BD4680BD00BFCB
:1007CC0010E000E080B582B000AF78607868FFF789
:1007DC002DFF00BF0837BD4680BD80B586B000AF89
:1007EC000346B9607A60FB7300237B61FFF742FF1D
:1007FC0078617A68B9687869FFF790FF024697F9D3
:10080C000F3011461846FFF75FFF00BF1837BD4683
:10081C0080BD80B582B000AF0346FB7197F90730FD
:10082C001846FFF735FF00BF0837BD4680BD80B5C1
:10083C0082B000AF78607868FFF7A2FF03461846D5
:10084C000837BD4680BD000080B48BB000AF786027
:10085C00396000237B6200233B6248E101227B6A02
:10086C0002FA03F3FB613B681B68FA691340BB6136
:10087C00BA69FB699A4240F037813B685B68A34ACE
:10088C0093425ED0A14A934275D8A14A934258D064
:10089C009F4A93426FD89F4A934252D09D4A9342AB
:1008AC0069D89D4A93424CD09B4A934263D89B4A49
:1008BC00934246D0994A93425DD8122B2AD8122BD8
:1008CC0059D801A252F823F04F0900082909000851
:1008DC003B0900087D09000883090008830900080A
:1008EC0083090008830900088309000883090008AC
:1008FC00830900088309000883090008830900089C
:10090C0083090008830900088309000831090008DD
:10091C0045090008824A934213D02CE03B68DB68FF
:10092C003B6229E03B68DB6804333B6224E03B68B4
:10093C00DB6808333B621FE03B68DB680C333B62CF
:10094C001AE03B689B68002B02D104233B6213E046
:10095C003B689B68012B05D108233B627B68FA69D5
:10096C001A6109E008233B627B68FA695A6103E06B
:10097C0000233B6200E000BFBB69FF2B01D87B6802
:10098C0001E07B6804337B61BB69FF2B02D87B6A77
:10099C009B0002E07B6A083B9B003B617B691A6809
:1009AC000F213B6901FA03F3DB431A40396A3B69B7
:1009BC0001FA03F31A437B691A603B685B6803F026
:1009CC008053002B00F09080564B9B69554A43F0A6
:1009DC0001039361534B9B6903F00103BB60BB683C
:1009EC00514A7B6A9B08023352F82330FB607B6AC6
:1009FC0003F003039B000F2202FA03F3DB43FA68B4
:100A0C001340FB607B68494A93420DD07B68484A8F
:100A1C00934207D07B68474A934201D1022304E0FA
:100A2C00032302E0012300E000237A6A02F00302B0
:100A3C0092009340FA681343FB603B497B6A9B0826
:100A4C000233FA6841F823203B685B6803F4801397
:100A5C00002B06D0384B9A683749BB6913438B601F
:100A6C0006E0354B9A68BB69DB43334913408B6016
:100A7C003B685B6803F40013002B06D02E4BDA683E
:100A8C002D49BB691343CB6006E02B4BDA68BB697D
:100A9C00DB4329491340CB603B685B6803F40033AC
:100AAC00002B06D0244B5A682349BB6913434B6077
:100ABC0006E0214B5A68BB69DB431F4913404B606E
:100ACC003B685B6803F48033002B06D01A4B1A6822
:100ADC001949BB6913430B6006E0174B1A68BB69D5
:100AEC00DB43154913400B607B6A01337B623B6827
:100AFC001A687B6A22FA03F3002B7FF4AFAE00BFB7
:100B0C0000BF2C37BD4680BC704700BF00003210C0
:100B1C000000311000002210000021100000121003
:100B2C0000001110001002400000014000080140BC
:100B3C00000C0140001001400004014080B485B05D
:100B4C0000AF78600B467B807B689A687B8813408B
:100B5C00002B02D00123FB7301E00023FB73FB7B12
:100B6C0018461437BD4680BC704780B483B000AFC4
:100B7C0078600B467B8013467B707B78002B03D010
:100B8C007A887B681A6103E07B881A047B681A6197
:100B9C0000BF0C37BD4680BC704780B485B000AF39
:100BAC0078600B467B807B68DB68FB607A88FB682F
:100BBC0013401A04FB68D9437B880B401A437B68AB
:100BCC001A6100BF1437BD4680BC704780B586B033
:100BDC0000AF78607B68002B01D101236CE27B684D
:100BEC001B6803F00103002B00F08780924B5B68BD
:100BFC0003F00C03042B0CD08F4B5B6803F00C033D
:100C0C00082B12D18C4B5B6803F48033B3F5803F17
:100C1C000BD1894B1B6803F40033002B6CD07B6821
:100C2C005B68002B68D1012346E27B685B68B3F5F7
:100C3C00803F06D1804B1B687F4A43F4803313609E
:100C4C002EE07B685B68002B0CD17B4B1B687A4ACF
:100C5C0023F480331360784B1B68774A23F480238A
:100C6C0013601DE07B685B68B3F5A02F0CD1724B51
:100C7C001B68714A43F4802313606F4B1B686E4AE8
:100C8C0043F4803313600BE06B4B1B686A4A23F40C
:100C9C0080331360684B1B68674A23F4802313600E
:100CAC007B685B68002B13D0FFF7B6FC386108E05B
:100CBC00FFF7B2FC02463B69D31A642B01D903231C
:100CCC00FAE15D4B1B6803F40033002BF0D014E009
:100CDC00FFF7A2FC386108E0FFF79EFC02463B6977
:100CEC00D31A642B01D90323E6E1534B1B6803F49D
:100CFC000033002BF0D100E000BF7B681B6803F0D1
:100D0C000203002B63D04C4B5B6803F00C03002BED
:100D1C000BD0494B5B6803F00C03082B1CD1464BE2
:100D2C005B6803F48033002B16D1434B1B6803F034
:100D3C000203002B05D07B681B69012B01D001231A
:100D4C00BAE13D4B1B6823F0F8027B685B69DB0062
:100D5C00394913430B603AE07B681B69002B20D0A8
:100D6C00364B01221A60FFF757FC386108E0FFF799
:100D7C0053FC02463B69D31A022B01D903239BE196
:100D8C002D4B1B6803F00203002BF0D02A4B1B6881
:100D9C0023F0F8027B685B69DB00274913430B6087
:100DAC0015E0264B00221A60FFF736FC386108E08C
:100DBC00FFF732FC02463B69D31A022B01D90323FD
:100DCC007AE11D4B1B6803F00203002BF0D17B680A
:100DDC001B6803F00803002B3AD07B689B69002B3F
:100DEC0019D0174B01221A60FFF716FC386108E086
:100DFC00FFF712FC02463B69D31A022B01D90323DD
:100E0C005AE10D4B5B6A03F00203002BF0D001207A
:100E1C0000F09AFA1CE00A4B00221A60FFF7FCFB68
:100E2C0038610FE0FFF7F8FB02463B69D31A022B3F
:100E3C0008D9032340E100BF0010024000004242E9
:100E4C00800442429E4B5B6A03F00203002BE9D103
:100E5C007B681B6803F00403002B00F0A6800023C2
:100E6C00FB75974BDB6903F08053002B0DD1944B32
:100E7C00DB69934A43F08053D361914BDB6903F0F8
:100E8C008053BB60BB680123FB758E4B1B6803F45E
:100E9C008073002B18D18B4B1B688A4A43F48073E8
:100EAC001360FFF7B9FB386108E0FFF7B5FB0246AA
:100EBC003B69D31A642B01D90323FDE0814B1B68DA
:100ECC0003F48073002BF0D07B68DB68012B06D118
:100EDC007B4B1B6A7A4A43F0010313622DE07B685B
:100EEC00DB68002B0CD1764B1B6A754A23F001038F
:100EFC001362734B1B6A724A23F0040313621CE0E7
:100F0C007B68DB68052B0CD16D4B1B6A6C4A43F07C
:100F1C00040313626A4B1B6A694A43F001031362B0
:100F2C000BE0674B1B6A664A23F001031362644BA8
:100F3C001B6A634A23F0040313627B68DB68002B93
:100F4C0015D0FFF769FB38610AE0FFF765FB024635
:100F5C003B69D31A41F28832934201D90323ABE0A7
:100F6C00574B1B6A03F00203002BEED014E0FFF783
:100F7C0053FB38610AE0FFF74FFB02463B69D31A7B
:100F8C0041F28832934201D9032395E04C4B1B6A02
:100F9C0003F00203002BEED1FB7D012B05D1484B56
:100FAC00DB69474A23F08053D3617B68DB69002BF4
:100FBC0000F08180424B5B6803F00C03082B61D07E
:100FCC007B68DB69022B46D13F4B00221A60FFF78E
:100FDC0023FB386108E0FFF71FFB02463B69D31A7D
:100FEC00022B01D9032367E0354B1B6803F0007318
:100FFC00002BF0D17B681B6AB3F5803F08D1304BD6
:10100C005B6823F400327B689B682D4913434B606B
:10101C002B4B5B6823F474127B68196A7B685B6AE0
:10102C000B43274913434B60274B01221A60FFF7F0
:10103C00F3FA386108E0FFF7EFFA02463B69D31A7E
:10104C00022B01D9032337E01D4B1B6803F00073FF
:10105C00002BF0D02FE01C4B00221A60FFF7DCFABB
:10106C00386108E0FFF7D8FA02463B69D31A022B25
:10107C0001D9032320E0124B1B6803F00073002BF3
:10108C00F0D118E07B68DB69012B01D1012313E05F
:10109C000B4B5B68FB60FB6803F480327B681B6A5C
:1010AC009A4206D1FB6803F470127B685B6A9A4221
:1010BC0001D0012300E0002318461837BD4680BD3F
:1010CC0000100240007000406000424280B584B0C5
:1010DC0000AF786039607B68002B01D10123D0E030
:1010EC006A4B1B6803F007033A689A4210D9674BA6
:1010FC001B6823F0070265493B6813430B60634B85
:10110C001B6803F007033A689A4201D00123B8E048
:10111C007B681B6803F00203002B20D07B681B68E4
:10112C0003F00403002B05D0594B5B68584A43F479
:10113C00E06353607B681B6803F00803002B05D049
:10114C00534B5B68524A43F460535360504B5B689B
:10115C0023F0F0027B689B684D4913434B607B681E
:10116C001B6803F00103002B40D07B685B68012BEC
:10117C0007D1474B1B6803F40033002B15D1012317
:10118C007FE07B685B68022B07D1414B1B6803F047
:10119C000073002B09D1012373E03D4B1B6803F056
:1011AC000203002B01D101236BE0394B5B6823F068
:1011BC0003027B685B68364913434B60FFF72CFADC
:1011CC00F8600AE0FFF728FA0246FB68D31A41F2EE
:1011DC008832934201D9032353E02D4B5B6803F013
:1011EC000C027B685B689B009A42EBD1274B1B6817
:1011FC0003F007033A689A4210D2244B1B6823F081
:10120C00070222493B6813430B60204B1B6803F019
:10121C0007033A689A4201D0012332E07B681B68CD
:10122C0003F00403002B08D0194B5B6823F4E06235
:10123C007B68DB68164913434B607B681B6803F0C3
:10124C000803002B09D0124B5B6823F460527B68B7
:10125C001B69DB000E4913434B6000F021F802467A
:10126C000B4B5B681B0903F00F030A49CB5C22FA9A
:10127C0003F3094A1360094B1B681846FFF78AF9F8
:10128C00002318461037BD4680BD00BF0020024029
:10129C00001002409C2B00081400002018000020B5
:1012AC0080B487B000AF0023FB600023BB60002339
:1012BC007B6100237B6000233B611E4B5B68FB6002
:1012CC00FB6803F00C03042B02D0082B03D027E09F
:1012DC00194B3B6127E0FB689B0C03F00F03174A8B
:1012EC00D35C7B60FB6803F48033002B10D0114B74
:1012FC005B685B0C03F00103114AD35CBB607B6839
:10130C000D4A02FB03F2BB68B2FBF3F37B6104E012
:10131C007B680C4A02FB03F37B617B693B6102E057
:10132C00054B3B6100BF3B6918461C37BD4680BC72
:10133C00704700BF0010024000127A00AC2B00086E
:10134C00BC2B000800093D0080B485B000AF78606C
:10135C000A4B1B680A4AA2FB03235B0A7A6802FB4E
:10136C0003F3FB6000BFFB685A1EFA60002BF9D137
:10137C0000BF00BF1437BD4680BC7047140000206E
:10138C00D34D621080B582B000AF78607B68002BC3
:10139C0001D1012341E07B6893F83D30DBB2002B97
:1013AC0006D17B68002283F83C207868FFF75AF856
:1013BC007B68022283F83D207B681A687B680433C3
:1013CC001946104600F056FA7B68012283F8462035
:1013DC007B68012283F83E207B68012283F83F2042
:1013EC007B68012283F840207B68012283F841202E
:1013FC007B68012283F842207B68012283F843201A
:10140C007B68012283F844207B68012283F8452005
:10141C007B68012283F83D20002318460837BD461F
:10142C0080BD000080B485B000AF78607B6893F815
:10143C003D30DBB2012B01D0012335E07B68022269
:10144C0083F83D207B681B68DA687B681B6842F078
:10145C000102DA607B681B68164A934209D07B68EC
:10146C001B68B3F1804F04D07B681B68124A93420F
:10147C0011D17B681B689B6803F00703FB60FB685A
:10148C00062B10D07B681B681A687B681B6842F0BF
:10149C0001021A6007E07B681B681A687B681B688E
:1014AC0042F001021A60002318461437BD4680BC76
:1014BC00704700BF002C01400004004080B584B090
:1014CC0000AF78607B681B68DB68FB607B681B681F
:1014DC001B69BB60BB6803F00203002B20D0FB68C8
:1014EC0003F00203002B1BD07B681B686FF0020219
:1014FC001A617B6801221A777B681B689B6903F071
:10150C000303002B03D0786800F098F905E07868A5
:10151C0000F08BF9786800F09AF97B6800221A7752
:10152C00BB6803F00403002B20D0FB6803F004031A
:10153C00002B1BD07B681B686FF004021A617B6860
:10154C0002221A777B681B689B6903F44073002B9B
:10155C0003D0786800F072F905E0786800F065F95E
:10156C00786800F074F97B6800221A77BB6803F086
:10157C000803002B20D0FB6803F00803002B1BD0C2
:10158C007B681B686FF008021A617B6804221A776B
:10159C007B681B68DB6903F00303002B03D07868BE
:1015AC0000F04CF905E0786800F03FF9786800F03D
:1015BC004EF97B6800221A77BB6803F01003002BEE
:1015CC0020D0FB6803F01003002B1BD07B681B683A
:1015DC006FF010021A617B6808221A777B681B680F
:1015EC00DB6903F44073002B03D0786800F026F914
:1015FC0005E0786800F019F9786800F028F97B6844
:10160C0000221A77BB6803F00103002B0CD0FB6897
:10161C0003F00103002B07D07B681B686FF00102FD
:10162C001A617868FEF7D4FEBB6803F08003002BC8
:10163C000CD0FB6803F08003002B07D07B681B6881
:10164C006FF080021A61786800F06FFABB6803F0E3
:10165C004003002B0CD0FB6803F04003002B07D099
:10166C007B681B686FF040021A61786800F0F8F82C
:10167C00BB6803F02003002B0CD0FB6803F02003A5
:10168C00002B07D07B681B686FF020021A6178680A
:10169C0000F042FA00BF1037BD4680BD80B584B063
:1016AC0000AF786039600023FB737B6893F83C30A3
:1016BC00012B01D10223B4E07B68012283F83C208A
:1016CC007B68022283F83D207B681B689B68BB60AB
:1016DC00BB6823F07703BB60BB6823F47F43BB601C
:1016EC007B681B68BA689A603B681B68B3F5005F3F
:1016FC003ED0B3F5005F00F28780B3F5805F00F059
:10170C008680B3F5805F7FD8702B1AD0702B7BD876
:10171C00602B50D0602B77D8502B3CD0502B73D8EB
:10172C00402B58D0402B6FD8302B64D0302B6BD83B
:10173C00202B60D0202B67D8002B5CD0102B5AD0DC
:10174C0062E07B6818683B6899683B685A683B683C
:10175C00DB6800F06AF97B681B689B68BB60BB6840
:10176C0043F07703BB607B681B68BA689A604FE0F4
:10177C007B6818683B6899683B685A683B68DB680B
:10178C0000F053F97B681B689A687B681B6842F40D
:10179C0080429A603CE07B6818683B6859683B68FB
:1017AC00DB681A4600F0CAF87B681B6850211846A3
:1017BC0000F021F92CE07B6818683B6859683B689D
:1017CC00DB681A4600F0E8F87B681B686021184655
:1017DC0000F011F91CE07B6818683B6859683B689D
:1017EC00DB681A4600F0AAF87B681B684021184693
:1017FC0000F001F90CE07B681A683B681B6819461D
:10180C00104600F0F8F803E00123FB7300E000BF82
:10181C007B68012283F83D207B68002283F83C2002
:10182C00FB7B18461037BD4680BD80B483B000AF3B
:10183C00786000BF0C37BD4680BC704780B483B065
:10184C0000AF786000BF0C37BD4680BC704780B4D9
:10185C0083B000AF786000BF0C37BD4680BC7047CA
:10186C0080B483B000AF786000BF0C37BD4680BC3D
:10187C007047000080B485B000AF786039607B6839
:10188C001B68FB607B682B4A934207D07B68B3F1E3
:10189C00804F03D07B68284A934208D1FB6823F021
:1018AC007003FB603B685B68FA681343FB607B6802
:1018BC00204A934207D07B68B3F1804F03D07B68FA
:1018CC001D4A934208D1FB6823F44073FB603B68CC
:1018DC00DB68FA681343FB60FB6823F080023B680B
:1018EC005B691343FB607B68FA681A603B689A6813
:1018FC007B68DA623B681A687B689A627B680D4A7F
:10190C00934203D13B681A697B681A637B68012296
:10191C005A617B681B6903F00103002B05D07B68BF
:10192C001B6923F001027B681A6100BF1437BD46A6
:10193C0080BC7047002C01400004004080B487B08C
:10194C0000AFF860B9607A60FB681B6A7B61FB686A
:10195C001B6A23F00102FB681A62FB689B693B61FE
:10196C003B6923F0F0033B617B681B013A6913432D
:10197C003B617B6923F00A037B617A69BB68134383
:10198C007B61FB683A699A61FB687A691A6200BFED
:10199C001C37BD4680BC704780B487B000AFF86080
:1019AC00B9607A60FB681B6A7B61FB681B6A23F079
:1019BC001002FB681A62FB689B693B613B6923F46C
:1019CC0070433B617B681B033A6913433B617B6942
:1019DC0023F0A0037B61BB681B017A6913437B6115
:1019EC00FB683A699A61FB687A691A6200BF1C3716
:1019FC00BD4680BC704780B485B000AF786039605C
:101A0C007B689B68FB60FB6823F07003FB603A68A3
:101A1C00FB68134343F00703FB607B68FA689A602A
:101A2C0000BF1437BD4680BC704780B487B000AF90
:101A3C00F860B9607A603B60FB689B687B617B698E
:101A4C0023F47F437B613B681A027B681A43BB68B3
:101A5C0013437A6913437B61FB687A699A6000BF10
:101A6C001C37BD4680BC704780B485B000AF786031
:101A7C0039607B6893F83C30012B01D1022341E0A3
:101A8C007B68012283F83C207B68022283F83D208E
:101A9C007B681B685B68FB607B681B689B68BB6032
:101AAC00FB6823F07003FB603B681B68FA68134308
:101ABC00FB607B681B68FA685A607B681B68144A79
:101ACC00934209D07B681B68B3F1804F04D07B68CC
:101ADC001B68104A93420CD1BB6823F08003BB6097
:101AEC003B685B68BA681343BB607B681B68BA6869
:101AFC009A607B68012283F83D207B68002283F882
:101B0C003C20002318461437BD4680BC704700BFEC
:101B1C00002C01400004004080B483B000AF78601A
:101B2C0000BF0C37BD4680BC704780B483B000AF9B
:101B3C00786000BF0C37BD4680BC704780B584B060
:101B4C0000AFF860084611461A4603467B810B46E7
:101B5C003B811346FB8097F82830092B00F2C68195
:101B6C0001A252F823F000BF9D1B0008F31B0008D4
:101B7C00491C00089F1C0008F51C00084B1D0008A0
:101B8C00A11D0008F71D00084D1E0008A31E00082B
:101B9C007B8900221946F868FEF7E7FF3B89002293
:101BAC001946F868FEF7E1FFFB8800221946F86831
:101BBC00FEF7DBFF3B8B00221946F868FEF7D5FFDA
:101BCC00BB8B00221946F868FEF7CFFF3B8C002236
:101BDC001946F868FEF7C9FFBB8C01221946F86854
:101BEC00FEF7C3FFADE17B8901221946F868FEF7C9
:101BFC00BCFF3B8900221946F868FEF7B6FFFB884C
:101C0C0000221946F868FEF7B0FF3B8B01221946FB
:101C1C00F868FEF7AAFFBB8B01221946F868FEF79D
:101C2C00A4FF3B8C01221946F868FEF79EFFBB8C83
:101C3C0001221946F868FEF798FF82E17B890022A1
:101C4C001946F868FEF791FF3B8900221946F8689F
:101C5C00FEF78BFFFB8801221946F868FEF785FF1B
:101C6C003B8B00221946F868FEF77FFFBB8B0022E6
:101C7C001946F868FEF779FF3B8C01221946F86883
:101C8C00FEF773FFBB8C00221946F868FEF76DFF58
:101C9C0057E17B8900221946F868FEF766FF3B89FD
:101CAC0000221946F868FEF760FFFB8800221946EF
:101CBC00F868FEF75AFF3B8B00221946F868FEF7CE
:101CCC0054FFBB8B01221946F868FEF74EFF3B8C84
:101CDC0001221946F868FEF748FFBB8C0022194612
:101CEC00F868FEF742FF2CE17B8901221946F8685F
:101CFC00FEF73BFF3B8900221946F868FEF735FFDB
:101D0C00FB8800221946F868FEF72FFF3B8B012257
:101D1C001946F868FEF729FFBB8B01221946F868B3
:101D2C00FEF723FF3B8C00221946F868FEF71DFFD7
:101D3C00BB8C00221946F868FEF717FF01E17B897E
:101D4C0000221946F868FEF710FF3B89012219465C
:101D5C00F868FEF70AFFFB8800221946F868FEF7C0
:101D6C0004FF3B8B00221946F868FEF7FEFEBB8B86
:101D7C0001221946F868FEF7F8FE3B8C0022194642
:101D8C00F868FEF7F2FEBB8C00221946F868FEF7E5
:101D9C00ECFED6E07B8900221946F868FEF7E5FEDA
:101DAC003B8901221946F868FEF7DFFEFB8800220A
:101DBC001946F868FEF7D9FE3B8B00221946F868E5
:101DCC00FEF7D3FEBB8B00221946F868FEF7CDFE5A
:101DDC003B8C00221946F868FEF7C7FEBB8C00222C
:101DEC001946F868FEF7C1FEABE07B890022194664
:101DFC00F868FEF7BAFE3B8900221946F868FEF730
:101E0C00B4FEFB8800221946F868FEF7AEFE3B8B49
:101E1C0001221946F868FEF7A8FEBB8B0122194671
:101E2C00F868FEF7A2FE3B8C01221946F868FEF713
:101E3C009CFEBB8C01221946F868FEF796FE80E0EA
:101E4C007B8900221946F868FEF78FFE3B89002239
:101E5C001946F868FEF789FEFB8800221946F868D7
:101E6C00FEF783FE3B8B00221946F868FEF77DFED9
:101E7C00BB8B00221946F868FEF777FE3B8C0022DC
:101E8C001946F868FEF771FEBB8C00221946F868FB
:101E9C00FEF76BFE55E07B8900221946F868FEF7C9
:101EAC0064FE3B8900221946F868FEF75EFEFB884B
:101EBC0000221946F868FEF758FE3B8B00221946A3
:101ECC00F868FEF752FEBB8B01221946F868FEF744
:101EDC004CFE3B8C00221946F868FEF746FEBB8C84
:101EEC0000221946F868FEF740FE2AE07B890122A1
:101EFC001946F868FEF739FE3B8901221946F86845
:101F0C00FEF733FEFB8801221946F868FEF72DFE1A
:101F1C003B8B01221946F868FEF727FEBB8B01228A
:101F2C001946F868FEF721FE3B8C01221946F86829
:101F3C00FEF71BFEBB8C01221946F868FEF715FE56
:101F4C0000BF00BF1037BD4680BD00BF80B586B056
:101F5C0002AFF860084611461A4603467B810B46D1
:101F6C003B811346FB80BB6A013B0E2B00F22181A7
:101F7C0001A252F823F000BF49200008C11F00083D
:101F8C00E31F000805200008272000089320000804
:101F9C00BF210008B52000080F21000867210008A8
:101FAC00BF210008C11F0008E31F0008052000081E
:101FBC0027200008FB883A89798902200090F8686C
:101FCC0000F028F9BB8C3A8CB98B00200090B869D2
:101FDC0000F020F917E1FB883A89798901200090FB
:101FEC00F86800F017F9BB8C3A8CB98B0020009084
:101FFC00B86900F00FF906E1FB883A89798900206D
:10200C000090F86800F006F9BB8C3A8CB98B022072
:10201C000090B86900F0FEF8F5E0FB883A89798900
:10202C0000200090F86800F0F5F8BB8C3A8CB98B66
:10203C0001200090B86900F0EDF8E4E07B89002203
:10204C001946F868FEF791FD3B8900221946F8689D
:10205C00FEF78BFDFB8800221946F868FEF785FD1C
:10206C00BB8B00221946B869FEF77FFD3B8C002222
:10207C001946B869FEF779FDBB8C00221946B86980
:10208C00FEF773FDBFE0FB883A8979890020009048
:10209C00F86800F0BFF8BB8C3A8CB98B002000902C
:1020AC00B86900F0B7F8AEE03B8901221946F86830
:1020BC00FEF75BFDFB8801221946F868FEF755FD1B
:1020CC003B8C01221946B869FEF74FFDBB8C0122EF
:1020DC001946B869FEF749FD4D4B9B68012B40F042
:1020EC008D807B891946F868FEF757FDBB8B194626
:1020FC00B869FEF752FD4FF4FA71022000F0AEFC05
:10210C007CE07B8901221946F868FEF72EFDFB88DE
:10211C0001221946F868FEF728FDBB8B01221946EF
:10212C00B869FEF722FDBB8C01221946B869FEF78F
:10213C001CFD374B9B68012B62D13B891946F86813
:10214C00FEF72BFD3B8C1946B869FEF726FD4FF4C4
:10215C00FA71022000F082FC52E07B8901221946C0
:10216C00F868FEF702FD3B8901221946F868FEF774
:10217C00FCFCBB8B01221946B869FEF7F6FC3B8CC4
:10218C0001221946B869FEF7F0FC214B9B68012B24
:10219C0038D1FB881946F868FEF7FFFCBB8C194652
:1021AC00B869FEF7FAFC4FF4FA71022000F056FC05
:1021BC0028E07B8901221946F868FEF7D6FC3B899A
:1021CC0001221946F868FEF7D0FCFB88012219465B
:1021DC00F868FEF7CAFCBB8B01221946B869FEF7FA
:1021EC00C4FC3B8C01221946B869FEF7BEFCBB8CC3
:1021FC0001221946B869FEF7B8FC04E000BF02E002
:10220C0000BF00E000BF00BF1037BD4680BD00BF5F
:10221C00D400002080B584B000AFF86008461146A9
:10222C001A4603467B810B463B811346FB803B7E63
:10223C00022B2CD0022B3DDC002B02D0012B13D017
:10224C0038E07B8900221946F868FEF78EFC3B8942
:10225C0001221946F868FEF788FCFB880122194612
:10226C00F868FEF782FC26E07B8901221946F868A3
:10227C00FEF77BFC3B8900221946F868FEF775FCDB
:10228C00FB8801221946F868FEF76FFC13E07B8986
:10229C0001221946F868FEF768FC3B8901221946B1
:1022AC00F868FEF762FCFB8800221946F868FEF716
:1022BC005CFC00E000BF00BF1037BD4680BD0000D5
:1022CC0080B500AF164B1A68164B1B681A44164B98
:1022DC001B689A4214BF01230023DBB21A46134B2E
:1022EC001A70134B1B68002B03DD124B1B68002B61
:1022FC000ADC0C4B1B680E4A13600B4B1B680D4A17
:10230C0013600D4B02221A60002000F059FB0346AB
:10231C00002B02D0084B08221A6000BF80BD00BF02
:10232C00240000202000002028000020D0000020E5
:10233C0030000020340000203800002080B500AFB1
:10234C000A4B1B68002B06DC094B1B68074A136001
:10235C00084B03221A60002000F032FB0346002BCE
:10236C0002D0044B08221A6000BF80BD3000002050
:10237C00240000203800002080B500AF144B1B78DF
:10238C00012B0BD1134B1B68002B16DC124B1B685B
:10239C00104A1360114B06221A600EE0104B1B689A
:1023AC00002B0ADC0C4B1B680A4A13600D4B1B6894
:1023BC000B4A1360094B04221A60002000F000FB4A
:1023CC000346002B02D0054B08221A6000BF80BDCB
:1023DC00D000002030000020280000203800002011
:1023EC00340000202000002080B500AF0A4B1B6891
:1023FC00002B06DC094B1B68074A1360084B0422B0
:10240C001A60002000F0DCFA0346002B02D0044BCB
:10241C0008221A6000BF80BD34000020200000207C
:10242C003800002080B500AF0A4B1B68002B06DC7F
:10243C00094B1B68074A1360084B05221A600020E1
:10244C0000F0BEFA0346002B02D0044B08221A609F
:10245C0000BF80BD34000020240000203800002084
:10246C0080B500AF0C4B1B68002B0ADC0B4B1B68B8
:10247C00094A13600A4B1B680A4A13600A4B022272
:10248C001A60002000F09CFA0346002B02D0064B89
:10249C0008221A6000BF80BD300000202000002000
:1024AC0028000020340000203800002080B500AF48
:1024BC00084B5B68012B02D1074B02221A600020EB
:1024CC0000F07EFA0346002B02D0034B08221A6060
:1024DC0000BF80BDD40000203800002080B500AFC4
:1024EC00084B5B68012B02D1074B03221A600020BA
:1024FC0000F066FA0346002B02D0034B08221A6048
:10250C0000BF80BDD40000203800002080B500AF93
:10251C00084B5B68012B02D1074B04221A60002088
:10252C0000F04EFA0346002B02D0034B08221A602F
:10253C0000BF80BDD40000203800002080B500AF63
:10254C00084B5B68012B02D1074B05221A60002057
:10255C0000F036FA0346002B02D0034B08221A6017
:10256C0000BF80BDD40000203800002080B586B0AC
:10257C0006AF324B1B68DBB2013BDBB2049340234A
:10258C000393202302931023019308230093042325
:10259C00022201212A48FFF7D1FA022304934FF4B7
:1025AC00005303934FF4805302934FF40063019351
:1025BC004FF4806300934FF400734FF480728021CA
:1025CC001F48FFF7BBFA1D4B1A681E4B1B689A423B
:1025DC0003DA1C4B1B68194A1360012000F0F0F958
:1025EC000346002B10D0154B1B68632B05DC134BDB
:1025FC001B680133114A136006E0134B1A68134B26
:10260C001B6813440D4A1360022000F0D9F90346ED
:10261C00002B03D0094B1B680A4A1360002000F002
:10262C00CFF90346002B06D0084B1B68084A1360F1
:10263C00084B09221A6000BFBD4680BDCC000020AB
:10264C00000C014028000020200000202400002065
:10265C00600000203800002080B586B006AF304BFB
:10266C001B68DBB2013BDBB20493402303932023B2
:10267C0002931023019308230093042302220121C7
:10268C002848FFF75BFA032304934FF4005303939A
:10269C004FF4805302934FF4006301934FF4806323
:1026AC0000934FF400734FF4807280211D48FFF7A4
:1026BC0045FA1B4B1B68002B02DC194B01221A60DC
:1026CC00012000F07DF90346002B0ED0144B1A6844
:1026DC00154B1B689A4205DA114B1B680133104AE3
:1026EC00136002E00E4B00221A60022000F068F921
:1026FC000346002B03D00A4B1B680C4A13600020C6
:10270C0000F05EF90346002B06D0074B1B68084A05
:10271C001360084B0A221A6000BFBD4680BD00BF83
:10272C0060000020000C014020000020240000204C
:10273C00C80000203800002080B586B006AF354BAD
:10274C001B68DBB2013BDBB20493402303932023D1
:10275C0002931023019308230093042302220121E6
:10276C002D48FFF7EBF9042304934FF40053039324
:10277C004FF4805302934FF4006301934FF4806342
:10278C0000934FF400734FF4807280212248FFF7BE
:10279C00D5F9204B1A68214B1B689A4203DA1F4B60
:1027AC001B681C4A1360012000F00AF90346002B39
:1027BC0012D0184B1A68194B1B681A44184B1B681B
:1027CC009A4205DA134B1B680133124A136003E07B
:1027DC00124B1B680F4A1360022000F0F1F80346FD
:1027EC00002B03D00B4B1B680E4A1360002000F02B
:1027FC00E7F80346002B0AD00B4B1B680B4A1360FF
:10280C00094B1B680A4A13600A4B01221A6000BF6D
:10281C00BD4680BDC8000020000C014024000020F3
:10282C0028000020200000202C0000203000002078
:10283C00340000203800002080B500AF144B1B681A
:10284C00013B052B20D801A252F823F07128000877
:10285C00772800087D280008892800088F280008A0
:10286C0083280008FFF72CFD0FE0FFF767FD0CE055
:10287C00FFF782FD09E0FFF7B7FD06E0FFF7D2FD99
:10288C0003E0FFF7EDFD00E000BF00BF80BD00BF1F
:10289C003800002080B584B000AF78603960002328
:1028AC00FB6077E03F4AFB68134419783E4AFB68AB
:1028BC0013440A461A703D4AFB6813441978394A86
:1028CC00FB6813440A461A70FB689B007A68134431
:1028DC001868FB685B003A6813441B881946FEF7BE
:1028EC002DF903461946314AFB6813440A461A70FF
:1028FC002D4AFB6813441A782A49FB680B441B7851
:10290C009A4244D1274AFB6813441A782749FB683A
:10291C000B441B789A423AD1254AFB6813441A7827
:10292C002149FB680B441B789A4218D01E4AFB685D
:10293C00134419781E4AFB6813440A461A701C4A41
:10294C00FB6813441B78002B21D11A4AFB681344F3
:10295C0001221A70184B4FF4FA721A6017E0164BDA
:10296C001B68013B144A1360134B1B68002B0EDCD5
:10297C00114B4FF4FA721A600D4AFB6813441B7822
:10298C00002B04D10D4AFB68134401221A70FB681A
:10299C000133FB60FB68022B84DD00BF00BF1037E6
:1029AC00BD4680BD680000206C0000206400002043
:1029BC0070000020740000203C00002078000020F3
:1029CC0080B483B000AF78607B68022B01D9002300
:1029DC000DE0094A7B6813441B78012B06D1064A8B
:1029EC007B68134400221A70012300E00023184670
:1029FC000C37BD4680BC70477400002080B500AF1A
:102A0C00154B1B68083B072B23D801A252F823F067
:102A1C003D2A0008432A0008492A00085F2A0008BA
:102A2C004F2A0008532A0008572A00085B2A00087E
:102A3C00FFF79CFD0EE0FFF70FFE0BE0FFF77CFEAF
:102A4C0008E0FFF733FDFFF749FDFFF75FFDFFF7E8
:102A5C0075FD00BF00BF80BD3800002080B483B07E
:102A6C0000AF78603960094B1B683A6892FBF3F24F
:102A7C0007497B6841F82320064A7B68002142F80D
:102A8C00231000BF0C37BD4680BC704740000020AF
:102A9C00FC000020D400002080B584B000AFF860AA
:102AAC00B9607A60054A7B681360B968F868FFF70B
:102ABC00D5FF00BF1037BD4680BD00BF40000020D1
:102ACC0080B483B000AF00237B601CE0124A7B68AB
:102ADC0052F82330002B08DD0F4A7B6852F8233064
:102AEC005A1E0D497B6841F823200B4A7B6852F82B
:102AFC002330002B04DC094A7B68012142F82310A7
:102B0C007B6801337B607B68092BDFDD00BF00BF76
:102B1C000C37BD4680BC7047FC000020D400002060
:102B2C0070B500260C4D0D4C641BA410A64209D1A7
:102B3C0000F022F800260A4D0A4C641BA410A64291
:102B4C0005D170BD55F8043B98470136EEE755F8B2
:102B5C00043B98470136F2E7C02B0008C02B000855
:102B6C00C02B0008C42B000803460244934200D13A
:102B7C00704703F8011BF9E7F8B500BFF8BC08BCB7
:102B8C009E467047F8B500BFF8BC08BC9E4670471F
:102B9C000000000000000000010203040607080901
:102BAC0002030405060708090A0B0C0D0E0F101082
:042BBC000102000012
:042BC00031010008D7
:042BC4000D010008F7
:102BC80000100140001001400010014000200040AA
:102BD8000080000000127A001000000001000000D0
:102BE80003000000020000000600000004000000CE
:102BF800050000000500000001000000F4010000CD
:042C08000A000000BE
:0400000508000529C1
:00000001FF
